:020000041000EA
:1000000000B5324B212058609868022188439860DF
:10001000D860186158612E4B002199600221596106
:100020000121F02299502B49196001219960352056
:1000300000F044F80222904214D00621196600F024
:1000400034F8196E01211966002018661A6600F04E
:100050002CF8196E196E196E052000F02FF8012189
:100060000842F9D1002199601B49196000215960AB
:100070001A491B48016001219960EB211966A021F2
:10008000196600F012F800219960164914480160C1
:100090000121996001BC002800D000471248134993
:1000A000086003C880F30888084703B5996A0420EC
:1000B0000142FBD001200142F8D103BD02B5186610
:1000C0001866FFF7F2FF186E186E02BD00000240BE
:1000D000000000180000070000035F00212200005C
:1000E000F4000018222000A00001001008ED00E03C
:1000F00000000000000000000000000074B24E7A12
:1001000000200420F7010010CB010010CD010010E9
:10011000C9010010C9010010C9010010C901001077
:10012000C9010010C9010010C9010010CF01001061
:10013000C9010010C9010010D1010010D301001045
:10014000C1010010C1010010C1010010C101001067
:10015000C1010010C1010010C1010010C101001057
:10016000C1010010C1010010C1010010C101001047
:10017000C1010010C1010010C1010010C101001037
:10018000C1010010C1010010C1010010C101001027
:10019000C1010010C1010010C1010010C101001017
:1001A000C1010010C1010010C1010010C101001007
:1001B000C1010010C1010010C1010010C1010010F7
:1001C000EFF30580103800BE00BE00BE00BE00BECA
:1001D00000BE00BEF2EB8871385D0010585D001063
:1001E0003802001090A31AE71E481F49086006C88D
:1001F00081F3088810471D480068002801D019487D
:10020000F3E70DA40ECC002902D000F012F8F9E7B4
:100210001749184A002000E001C19142FCD116495B
:100220008847164988471649884700BEFDE701C937
:1002300001C29A42FBD37047585D0010C0000020F5
:1002400010160020A87200100000042000000420F6
:10025000A87200100010042000100420000000000C
:10026000704700000000000008ED00E0000000D032
:10027000101600209426002095220010D5020010B0
:100280008D220010F8B5C04606480749091A8B10A0
:10029000C90FC91810B5491003D0044B002B00D06A
:1002A000984710BD10160020101600200000000016
:1002B000054B10B5002B03D00449054800E000BFF2
:1002C000FFF7E2FF10BDC046000000002826002016
:1002D0006C580010F0B5DE4657464E464546E0B530
:1002E00087B002F025F9E1217948490201F0A0F830
:1002F0000221002000F000F90221012000F0FCF8AA
:10030000102000F027F9D026802336065B02002259
:100310000121B362102000F009F90D2000F01AF954
:1003200080239B0100220121B3620D2000F0FEF822
:10033000192000F00FF980239B047362C820B36179
:1003400000F012FF634B644F9846644B01259946B9
:10035000634B0293634B0193634B0493634B05938D
:10036000634B9A46634B03933B00474698463AE0FB
:10037000FA220023920001F049FC4B461B78012B26
:100380004ED0022B72D0002B07D15B46002B04D03D
:1003900001234A461370029B1860802372689B01F8
:1003A0001A409304DB0F6B400024DBB2002A03D118
:1003B000424614786C40E4B24246137000F0EAFF03
:1003C00000294DD0FA220023920001F01FFC834641
:1003D000002C05D053465A461B68D31A312B4BD8F4
:1003E0000A2000F0C1FE8023002274685B021C40DA
:1003F000E303DB0F6B409346DBB2002C03D13A786A
:100400006A40D2B293463B7000F0C4FF0029AFD1DE
:10041000FA21890001F0BCFB4B461B78012BB0D1BF
:100420005B46002B3ED1029B1B68C01AC8235B00B1
:100430009842B2D380244C2002F07EF8019BA404A1
:100440001B68986804F096FD5020746100F08CFEE3
:100450004B465A46B46105981A7002F0B7F89CE70B
:10046000FA21890001F094FB8346B1E7002C94D077
:100470004B4600221A7090E78024462002F05CF878
:10048000019BA4041B68986804F074FD50207461FB
:1004900000F06AFE53465A46B46103981A6002F0AF
:1004A00095F89DE78024522002F046F8019BA404B1
:1004B0001B68986804F05EFD5020746100F054FEE3
:1004C00002234A46B4610498137002F07FF864E78F
:1004D000004003408D260020892600208E26002023
:1004E00010220020C414002070580010B0580010D2
:1004F00018260020F0580010094A83009A1810B5F9
:1005000014684022544080322240064CC000A44669
:1005100063441A60044B9C466044416010BDC04671
:1005200004C0014004D0014000400140074B80005E
:10053000C3181B68C90092000A435A400C23134099
:10054000034A9446604403607047C04604C00140BB
:1005500004D001400123D0228340120693629361AC
:10056000094A83009A1811684022514080320A409B
:100570000649C0008C4663441A60054B9C4605231F
:10058000604443607047C04604C0014004D001404D
:10059000004001408023DB051868000F7047C0460B
:1005A0000FB400B5084883B002F010F8049B002B8C
:1005B00007D005A91800019101F008FE034802F0D8
:1005C00005F8012001F01AFE105900102059001002
:1005D00070B5EFF3108C72B60D4D2B68002BFCD06C
:1005E000BFF35F8F0724CB08C618C05C01230C4003
:1005F000A3401C000440034207D118433070BFF3EE
:100600005F8F2C608CF3108870BD1000FFF7C8FF5F
:100610002C0100D0F8B54746CE46884680B5EFF3AA
:10062000108C72B61C4D2C68002CFCD0BFF35F8F71
:100630009A4222D807210126894602E001329342DC
:1006400018D34D4637001540AF40D4080119045D5A
:100650002742F3D110003C430C70BFF35F8F0022A0
:100660000D4B1A608CF3108800280EDBC0BCB94615
:10067000B046F8BD01204042EFE7BFF35F8F002393
:100680002B608CF31088012040424346002BEDD0B4
:100690000898FFF785FFC0462C0100D0044A107867
:1006A000431CDBB2172B00D9102313707047C046D0
:1006B000E00F002010B5064B064C82B001000093FD
:1006C00018221F232000FFF7A5FF02B010BDC0466F
:1006D00024590010A82100200021044B044ABFF334
:1006E0005F8F02C39342FAD17047C046000100D029
:1006F000800100D0054B064A1360064A1360536020
:100700009360D360136153619361704780808080F0
:1007100000E400E004E400E01F2318401E3B834097
:10072000002905D0C021044A490053501360704786
:10073000802201498B50FAE700E100E0012282406B
:10074000034B1B6813405A1E9341D8B27047C046F2
:1007500000E100E001238340014A13607047C04676
:1007600000E200E0064B10309B688000C358054A49
:1007700000209B1A2F229A424041C0B27047C046C7
:1007800000ED00E0E40F002070B50D00EFF31086DF
:1007900072B60F4A1368002BFCD0BFF35F8F0D4B6E
:1007A00010309B6884001B590B4A934203D09D4232
:1007B00001D001F0C3F8074B9B681D51BFF35F8F59
:1007C000BFF35F8F0022024B1A6086F3108870BD62
:1007D000240100D000ED00E0C1010010F0B5574643
:1007E0004E46DE464546E0B585B00600009117004E
:1007F000EFF3108B72B66A4A1368002BFCD0BFF37C
:100800005F8F0025674B5D579A46002D00DAA9E0FF
:100810006B00654C01935B199B009846A146C1444F
:100820004B4652469B7910361370604BB6009B685E
:1008300099590B1B2F2B33D95D4B994200D0ACE05B
:10084000019B42469C465B4B6544AD0063535A4B4B
:100850000232A218043B9B1A1B05584A5B0D65190E
:1008600013436B80564B0121AB80FF23AB71009B80
:10087000EF71AB604B460B4319004C4B9B68995191
:10088000BFF35F8FBFF35F8F0022454B1A608BF37E
:10089000108805B0F0BCBB46B246A946A046F0BDE4
:1008A00001200A008243D3798C46BB4231D84546A9
:1008B000130044491B1B5B415943090D3D4B6353D6
:1008C0003D4B02356519043B5B1B1B053B4D5B0D26
:1008D0002B43AA464D466B800425AC465546E04462
:1008E000131F44441B1B1B055B0D1D434B46997195
:1008F00000999D8099604946DF71334B0143136035
:10090000BBE75800C01880002018C179B9422FD920
:1009100002000623D356002BF3DA02932B4B6146D9
:100920000393131D9A4604235B429C46E1445046C0
:100930004B461B1A1B055B0D9C46204B9571984638
:100940006346404603439380019B5A199200039BE0
:10095000A418A380029B1C4AA371009B2260E7712C
:10096000A3608AE700F0EAFF002553465D574FE792
:10097000908802934005131D9A46031561469C46D4
:100980004046D444634604302018181AE02300057A
:10099000400D1B0218430390C5E700F0CFFF4FE75F
:1009A000240100D08A260020E40F002000ED00E0A2
:1009B000C101001000A1FFFF1410002000E0FFFFA4
:1009C00001BDFFFFAAAA00000148804701BD000049
:1009D00070B501240443EFF30581EFF3108C72B678
:1009E000214A1368002BFCD0BFF35F8F1F4B05001B
:1009F0001F4AED1A6D416A43120D1E4D8900AE6803
:100A000052B27658A6421CD00621595691421CD0AB
:100A100012215956914222D01E215956914220D07E
:100A20002A2159560324914210D0134B19781A7079
:100A30008171BFF35F8F00220B4B1A608CF310881B
:100A400070BDAB680D4C5C50EFE7002461000919E4
:100A500089005B18FF21997109499980E5E7012414
:100A6000F4E70224F2E7C046240100D0E40F00209E
:100A7000AAAA000000ED00E08A260020C1010010B3
:100A800001BDFFFF10B5084B084C82B00100009378
:100A9000002205232000FFF7BDFD002801DB1F23F6
:100AA000181A02B010BDC046405900109026002010
:100AB000024B9C466144890001607047400000344D
:100AC00070B5114C114DAC420FD2FF262368002B9C
:100AD0000CD0FFF7E3FD01002000FFF7E9FFA6803F
:100AE000BFF35F8F0834AC42F0D370BDFFF7D6FD83
:100AF00001002000FFF7DCFF2671BFF35F8F083491
:100B0000AC42E3D3F1E7C0460816002010160020DF
:100B100010B50400FFF7C2FD01002000FFF7C8FF79
:100B2000FF232371BFF35F8F10BDC04610B50400D3
:100B30000120FFF7BFFD034BC3189B002360BFF3E9
:100B40005F8F10BD40000034034B9C466144890018
:100B50000160BFF35F8F7047400000340A4B196893
:100B6000EFF3108072B60A68002AFCD0BFF35F8FE3
:100B70001B68BFF35F8F00221A6080F3108840BFAC
:100B8000002000217047C04664260020F0B5DE46F4
:100B900057464E464546E0B587B0EFF3058303223E
:100BA00001251A40954091008846A946B34B03920F
:100BB0005C58B34B1D60B34B04934B46B248436340
:100BC0000823E55E002D37DAA3881BB2002B00DB7B
:100BD000ADE0A379002B00D0EEE00823E05E002812
:100BE00020DB430062691B18DB00D3189E68DD68B8
:100BF000731C00D111E1A44801004144826A0B69D1
:100C0000B71A9B1A9F4215D30123026A03988340A7
:100C10001A420FD09C4800F0B5FB8D4202DCCCD1CB
:100C20008642CAD940BF07B0F0BCBB46B246A9460F
:100C3000A046F0BD0E61EDE762696B0092465B195C
:100C4000DB009A4453469E68DF6800F09BFB8F42AE
:100C5000BADC00D103E1002F00DAE8E05246534647
:100C600052691B699346049A934200D1D9E05246D7
:100C70000821605E5288000459461043984700904E
:100C800001910099019A0B001000134300D1CEE0AE
:100C900013000A00B61A9F41002806DB7A4800F0CC
:100CA00071FB009E019F36184F4153469E60DF60E6
:100CB00000229A5E002A00DA86E7530099186069DC
:100CC000C900411802938B68C9689B46B94200DD90
:100CD0007AE702D1B34200D976E708239C46A444C0
:100CE000059565462281A446029B2C0006E0530030
:100CF0009918C90041188D68C968AB469B18DB007C
:100D0000C318B94206DC00D1B3E01C000023E25E48
:100D1000002AECDA230064469C4653461A80634658
:100D2000059D1D80A3881BB2002B00DA51E72269C4
:100D3000EFF3108172B61368002BFCD0BFF35F8F06
:100D40000123A7885B42A3803FB22369BFF35F8F73
:100D500000221A6081F31088002F00DA39E723009F
:100D6000083322009A4666697B00DB19DB00F31822
:100D7000996850468C460824115FDD68002910DB15
:100D8000029306E0AB4244D00023E15E200000293C
:100D900006DB4C006418E4003419E368AB42F1DD73
:100DA000029B078000201F5E1980002FDCDA1400F0
:100DB000A379002B00D110E70023A371260008239C
:100DC000E15E08364B1C00D12CE70800A24665699D
:100DD00002E03E004B1C1AD04B005B18DB00EF1802
:100DE0000A008C46E95E7B881BB2002BF1DA0123F6
:100DF0005B42DC17BB60FC60824205D05346318009
:100E00001B893B8053461A8160464B1CE4D15446F3
:100E1000E5E6A3686345B7D9C2E76B1C00D0EAE6F4
:100E2000F8E65B4658461B69984700281BD1534695
:100E30001B8822692381EFF3108372B611680029A1
:100E4000FCD0BFF35F8F514662880A8022696580BB
:100E5000BFF35F8F0021116083F31088B4E68642F0
:100E600000D8F8E6B0E65B461A685B68009201932A
:100E700007E7B34500D848E74CE7C04648260020BE
:100E80003C7005408D0B00100040054070B52E4CA5
:100E90002569002D04D00A212C48FFF709FE70BDFA
:100EA0002B4E0321300000F063FAE660FFF7F6FBFB
:100EB000284B03229C46D02322701B061B6801216D
:100EC0006370254B6044A3600F23800020610220E3
:100ED000638063694942A1801980023119864731D4
:100EE0001D83585218315A5275325C399952183252
:100EF0000131995218320131995218320131995207
:100F0000083518329D520231183299521832013187
:100F100099521832013199521832013199521832CE
:100F2000013199521832013199520C4B0C49DC6055
:100F300001303562FFF728FC01210320FFF7ECFBAD
:100F4000084B1D60A7E7C0462C1000206426002037
:100F50000040054040000034FFFF100048260020FC
:100F60008D0B001038600540004870472C100020A1
:100F7000F8B51F0008AB1B7804001600002B08D141
:100F800000F008FA32003B00121A8B41002B00DA05
:100F900052E02269EFF3108072B61368002BFCD088
:100FA000BFF35F8F0223E15E63694A005218D200EB
:100FB0009B182269002936DB1D886580BFF35F8F8F
:100FC0000025156080F31088069A9E60DF601A6124
:100FD000079A5A615A8801325204520C101C002A96
:100FE0001FD082B25880080410432669EFF310879F
:100FF00072B63268002AFCD0BFF35F8FA2881A80D5
:10100000A1802369BFF35F8F00221A6087F31088E5
:101010000A4923788C4601329A40E36863441A6097
:10102000F8BD0120DDE7BFF35F8F0023136080F37D
:10103000108801204042F3E70020F1E73C20000047
:1010400070B501000469EFF3108C72B620680028B7
:10105000FCD0BFF35F8F02200D5E4C696800401921
:10106000C00024180869002D36DB26884E80BFF3A7
:101070005F8F002606608CF31088E3606388049815
:10108000013320615B0405985B0CA26060611A1C4F
:10109000002B1FD093B22804628018430A69EFF333
:1010A000108C72B61368002BFCD0BFF35F8F8B8857
:1010B00023808D800B69BFF35F8F00221A608CF351
:1010C00010880B7801329A40CB6808498C466344FB
:1010D0001A6070BD0122DDE7BFF35F8F002303605C
:1010E0008CF3108801204042F3E7C0463C2000000A
:1010F00010B543890A1493421ADD53009B184269C4
:10110000DB00D3180469EFF3108C72B62268002A52
:10111000FCD0BFF35F8F5A88090494B2090C8A424D
:1011200008D00369BFF35F8F00221A608CF3108828
:10113000002010BD8022120214435C80012302694A
:101140008371BFF35F8F002111608CF31088044915
:1011500002788C469340C268012062441360E8E73D
:101160003C20000040787047F0B5C64600B582B01C
:10117000040000F00FF9FA2206000F0020000023FF
:101180000021920000F0A4FF8019794104000D1E97
:1011900002DA01242E4D644206267642F7173619EC
:1011A0006F41AF4214D811D000F0F4F832003B0088
:1011B000121A8B41002B15DC002B46D02000290091
:1011C00000F026F902B080BCB846F0BDA642EBD9CB
:1011D0000026002700F0DEF832003B00121A8B4197
:1011E000002BE9DD00F0D6F832003B00121A8B41EB
:1011F000002B0ADB00230193164B320000931648A4
:101200003B00FFF71DFF0130D8D000233900B04666
:101210009C46124A1248536A994204D8966A464537
:10122000CCD29942CAD10668EFF3108772B6336800
:10123000002BFCD0BFF35F8F0368BFF35F8F664660
:101240001E6087F3108820BFE5E7002AB6D0C9E703
:10125000FFFFFF7F5D0B00102C10002000400540B9
:1012600064260020F0B557464E46DE464546E0B5BA
:1012700006000F0085B0EFF3058399468B46002BDF
:1012800012D0384900204B6ABB4206D38A6ADB1B66
:10129000591E8B41B2424041184305B0F0BCBB46D9
:1012A000B246A946A046F0BD2F4B9A46DB68984649
:1012B00053461B784046039300F064F84246039B74
:1012C000040004339B009B580D001B1A39003000AA
:1012D000001BA941894510DC0DD020BF214A002008
:1012E000536A5B45D9D3926ADB1B591E8B41B242CC
:1012F00040411843D1E78342EFD900F04BF8320068
:101300003B00121A8B41002B1ADB00230193174B71
:101310003200009350463B00FFF792FE011E0FDDA6
:10132000104B5A6A5A451BD39B6AB34216D3504698
:10133000FFF7DEFE0B4A0020536A5B45ADD3D2E7D0
:10134000084A0020536A5B45A7D30020926ADB1B42
:10135000B24240415A1E934118439EE75A45E6D196
:1013600020BFE4E7004005402C1000205D0B00107A
:1013700010B5024A0248FFF72BF910BD5C59001066
:10138000AC2100200300416A0A00986A596A8A4227
:10139000FAD17047034B596A0A00986A596A914218
:1013A000FAD170470040054070B504000D00174A9F
:1013B000536A1900966A536A8B42FAD130001900B9
:1013C00024184D41AB4216D813D0104B2A005B6A4B
:1013D0009D4203D90D494B6A9342FCD3934207D1F6
:1013E0000A4A02E0516A994202D1916AA142F9D3B4
:1013F00070BDA642E9D9054B5B6A1C005A1CEFD0B0
:10140000012201246442E5175242E3E7004005400F
:10141000064A536A9942FCD807D1044B02E05A6A43
:10142000914202D19A6A9042F9D870470040054033
:10143000F8B5040006200D0000F078F9002844D02B
:10144000374B3849E3185A1E9341802212049446C0
:101450005B429B0D344A9B0563441360334A13601F
:1014600018000A689043FBD12D4B314AE3185942CA
:101470004B4180215B0049000620995200F056F94B
:101480002900C00000F084FB0130C3091ED14027B1
:1014900001226262A362266BF30722D4E36A254B22
:1014A0000620E51800232B60266300F03FF9390081
:1014B000800000F06DFB7023E26A5A400E33134047
:1014C0002B601D4B23630323A364F8BD1B4A934287
:1014D0001ED900231A4A1B4F6262A362266BF307D0
:1014E000DCD5194B144AE3181A60656AA36A062012
:1014F000AD01ED1800F01AF9144900F049FBAD02F6
:101500000100280000F044FB0021FFF74DFFC5E774
:101510004006800E9F011A003F180300B9E7C0463D
:101520000080FCBF08C0004000E0004000F0004028
:10153000702600202C10000001030000FEFF0000B8
:10154000FFFF0000C0FF3F00303000004E0E0000E3
:10155000F8B5DE464E4657464546E0B58B46050093
:101560000A991800160000F013FB0A9B6C001F027A
:10157000324B64199C46A4006444636881469F42D0
:1015800000D967602B1FDBB29846012B30D9C023EE
:1015900080229B01E31812011A60294BAD005959B2
:1015A0009A4600291BD17301E026226853401E4051
:1015B000802342465B01E3181E60012A30D9802354
:1015C00080229B01E31812011A6053464A46676065
:1015D0005A51F0BCBB46B246A946A046F8BD586970
:1015E00000F0D6FA013043001B18033BFDD2DAE7C6
:1015F0005B46012BCBD1C02303229B01E3181A6069
:10160000023AA3681A42FCD07301E0262268AD00BA
:1016100053401E4080230A4A5B019246E3181E6035
:101620005A462168514003220A401A6001225B4653
:101630009A40A3681A42FCD0C1E7C046008000402F
:10164000B0210020F0B546464F46D646C0B51F0033
:10165000344B44009C462418A400644463688846C4
:101660001600FF2B02D880235B006360031FDBB2F0
:101670009A46012B30D9C02380229B01E318120126
:101680001A60294B85005959994600291BD17301CD
:10169000E026226853401E40802352465B01E31837
:1016A0001E60012A30D9802380229B01E318120199
:1016B0001A6080235B0063604B465F51E0BCBA4612
:1016C000B146A846F0BD586900F062FA0130430007
:1016D0001B18033BFDD2DAE74346012BCBD1C023D5
:1016E00003229B01E3181A60023AA3681A42FCD055
:1016F0007301E0262268850053401E4080230A4A79
:101700005B019146E3181E60424621685140032266
:101710000A401A60012342469340A2681342FCD05B
:10172000C1E7C04600800040B0210020014B80008E
:10173000C0587047B0210020F8B5040021481E00B1
:1017400017000D0000F024FA0100380000F020FA24
:10175000069B36041B031E432368002B20DB1A4B19
:101760001A49E3185A1E93418022920194465B4223
:101770001B0B174A1B0363441360164A13601F00B8
:101780000A689743FBD1144B2560E2182123A0601F
:1017900013602368002BFCDA0823E6601360F8BDB1
:1017A0003F2322681340AB42D9D1A3681B051B0D10
:1017B0008342D4D1EE22E368D2021340B342CED1A9
:1017C000EDE7C046001BB7000040FDBF08C0004069
:1017D00000E0004000F000400430000010B580241C
:1017E0001C4BE4051C6000281AD001231A4C184336
:1017F0001A4BDC611A4C44401C6259629862802189
:10180000144BC9051960174817490860E021C9043D
:101810001960002A07D18022144B12061A6010BDED
:101820000E4BD861EBE753019B1A9B009A1880235B
:1018300012015B049A4209D213000D490B60074B59
:101840005A608022094BD2051A60E8E7094B1A005A
:10185000F3E7C04600B00540D3C007B000800540A4
:101860002D3FF84FFCFF01000820014000A005407B
:1018700020260020FFFFFF008023024A9B000B432D
:10188000D362704700800540002310B50100988A9C
:101890001B8B984710BDC046162310B50100188851
:1018A00002331B88984710BDF8B54746CE4680B531
:1018B0000F1E18D014239946043304000025012676
:1018C00098464B461888434621681B88984701C4B0
:1018D000431E984101350640AF42F2D13000C0BCF2
:1018E000B946B046F8BD0126F8E7C046002370B5FA
:1018F00004000D00988A05491B8B984703000020BF
:10190000002C01DB0130A04029009847554200001F
:10191000AA23064A1B0113608D235B00D360044990
:10192000044B19605368002BFCDA704700400240FA
:1019300000B0FA00006002407047C04610B5014890
:10194000FEF72EFE8059001070B5074D074EB542C8
:1019500009D20024013E761BB60808CD9847230023
:101960000134B342F9D170BD2858001064580010FA
:10197000054B064A06491A60064A074B1A601000D2
:101980000B689843FBD1704700E00040BFCDFBFEE1
:1019900008C00040FE7F3C0000F00040044BDB6CC0
:1019A000002B03D18022034BD2021A607047C0463D
:1019B000000011504C201150044A054B1A60054A92
:1019C0001368DB018033FBD17047C046FFFFFF0186
:1019D00000F0004008C000404022034B9A675A675D
:1019E0001A67DA667047C04600F0014010B5FEF78E
:1019F00073FE10BDF8B52749274C284D641AA61070
:101A00003200302E00D930222800920000F0D0FBA6
:101A1000BC2C3BD830202F232C196407204A801B74
:101A2000E40F9B1B052B16D93700002C02D0B30006
:101A3000771CEA50001B33199B004108EB18C900C2
:101A4000C9181A605A6008339942FAD10123034237
:101A50001CD09843C619B300EA50731C2F2E15D022
:101A60009B00EA50B31C2E2E10D09B00EA50F31CB2
:101A70002D2E0BD09B00EA50331D2C2E06D09B0040
:101A8000EA50731D2B2E01D09B00EA50054B9D6040
:101A9000F8BDC04600010010C00100100000002089
:101AA000C101001000ED00E0002310B5294C82B008
:101AB000A367FFF72DFF0122274B1A60636C012BF0
:101AC000FCD10322254B1A60224A936B012BFCD1D7
:101AD000013300930121224A22480433FFF72CFEF0
:101AE000052301210093204A2048FFF725FE00220C
:101AF000022104201E4BFFF7A5FD00220121052035
:101B00001C4BFFF79FFD0022002107201A4BFFF717
:101B100099FD002200210820174BFFF793FD802339
:101B2000DB000093002200210920134BFFF710FD7A
:101B30000022104B00210620FFF784FD0420FFF750
:101B4000F5FD0E4900F024F801000020FFF794FE97
:101B500002B010BD008000403CB0004030B00040FA
:101B6000002F685900800240008C864700C0024068
:101B7000001BB70040597307006CDC0240420F00A5
:101B800001480421014B184750100020A9180010EB
:101B9000114A936F9B0813D210665166002905D035
:101BA000FFE7FFE7FFE7516F106F704704B50028AC
:101BB00001D00020C04303F0FFFD002104BDC0465A
:101BC000F0B5146E556E576F166FFFF7E5FF14668C
:101BD000556657671667F0BD000000D094464A4A24
:101BE000926F9208624601D228E0C046F0B5464E98
:101BF000346E756E776F366F00F020F89446424A67
:101C000014665566576716676246F0BD94463E4AAD
:101C1000926F9208624601D254E0C046F0B53A4E47
:101C2000346E756E776F366F00F04CF89446364A16
:101C300014665566576716676246F0BD002B24DBB5
:101C400011D000293EDA00B5C943404200D101312C
:101C500000F038F8C943404200D10131DB43524221
:101C600000D1013300BD002AEBD1002801D10029A9
:101C700005D00020C90FC90701D1C043410800B5F4
:101C800003F082FD0022002300BD00B500290ADB1D
:101C9000DB43524200D1013300F014F8C943404203
:101CA00000D1013100BDC943404200D10131DB43C5
:101CB000524200D1013300F005F8DB43524200D11B
:101CC000013300BD002923D1002B18D1002A0CD0EC
:101CD000BC460D4F38667A6600210023FFE7FFE718
:101CE000FFE77A6F386F67467047002801D00748D2
:101CF000010000B503F048FD0022002300BD0200F2
:101D00000B00002000217047000000D0FFFFFFFF04
:101D1000002B00D0BFE0130C28D1002AE7D080B4FC
:101D2000114F39667A66FFE7FFE730B4040C7B6F2A
:101D3000396F1B0423433B667A66FFE7FFE7FFE743
:101D4000C04684B27B6F3D6F1B0423433B667A66BB
:101D5000FFE7FFE7C04600232C042D0C7A6F386F95
:101D600000196941B0BC7047000000D0F0B594463E
:101D70000025140E01D112020835140F01D11201F1
:101D80000435940F01D192000235D40F01D15200D5
:101D90000135D40B0134254F7C66254C3C660E0C76
:101DA00093B2FFE7FFE7FFE73C6F6643360C77032C
:101DB000BE467343DF0B5B04C01AB941130C734377
:101DC000DB18C91ACE086643360CB64493B2734387
:101DD0001F0F1B01C01AB941130C73431F0B1B05C6
:101DE000C01AB941860D8F023E436643360C092D59
:101DF00024DB520A7243801A7703460A6643360C84
:101E000016235B1BDE40DF40BF1964466643821B1E
:101E10007046043506330100D940A840C01900D3EC
:101E20000131A24206D20023F0BD0000000000D024
:101E3000FFFFFFFF121B0130F3D3F1E709277F1BE0
:101E4000FE406446A2B27243801A00D20139220CCD
:101E50007243130C1204821A99410B007046043528
:101E600013370100F940A840801900D30131002B3D
:101E700002D1A2420AD2F0BD013000D30131121BBF
:101E8000FAD2013BF8D1A24200D2F0BD013000D31A
:101E90000131121BF7E7F0B51C0C00D080E00CB448
:101EA00000251C0A04D11B02160E3343120208350A
:101EB0001C0B04D11B01160F3343120104359C0B7C
:101EC00004D19B00960F334392000235DC0B02D104
:101ED00092185B4101351C00971864410134464F4C
:101EE0007C66464C3C660E0CFFE7FFE7FFE7C0460A
:101EF0003C6F6643360C7703BE4697B27743C01BF0
:101F000000D20139C01B00D201399FB27743C91BEF
:101F1000C91B170C77437E04FF0B801BB941CE0809
:101F20006643360C0C2D33DBB644120B1F053A43C7
:101F30001B0B97B27743C01B00D201399FB2774386
:101F4000C91B170C77433E043F0C801BB941860D1B
:101F50008F023E43664329277F1BFE400C3D774698
:101F6000AF40BF1930BCA2B2ABB272437343801A08
:101F70009941220C7243130C1204801A99410200F9
:101F80000B000137001BA941F9D2781E0021F0BDDA
:101F90000C277F1BFE4077467F0BAF40FF19E0E721
:101FA00000245D1C07D0144F7D663966FFE7FFE70C
:101FB000FFE7FFE73C6F95B29EB265436643401B67
:101FC000B141150C1E0C6543664336042F0C3E438D
:101FD0002D04401BB141994204D202000B002000A5
:101FE0000021F0BD01D19042F7D3801A994101340C
:101FF0009942F2D3F6E70000000000D0FFFFFFFF98
:10200000132370B51D78012D19D014DD1F48FFF77B
:1020100043FC06001E48FFF73FFC1E4C80223100A7
:10202000200000F0C5F8022D2DD01B48FFF72CFC36
:102030001A4B186070BD1A4B164CA364F5E7184B89
:10204000144C23606360A360E36023616361A36158
:10205000E36123626362A362E36223636363A36356
:10206000E36323646364A364E36423656365A36536
:10207000E36523666366A366E36623676367A36716
:10208000E367A364D1E7064BA364CEE753440000A3
:1020900053460000981700204C33000060260020B3
:1020A000A520001007B5604601880A0A0230DF2A21
:1020B000FAD1C9B2820804D30288408800041043D0
:1020C00000E00068014A5050039007BD98170020B7
:1020D00051434343C9188C46110C83B24B4310B48F
:1020E000040C614392B280B2504362431C041B0C47
:1020F000001910BC59411304120CC018514161441D
:1021000070470000132310B512481C78FFF7C4FB7A
:102110000100012C0AD003DD80220F4800F048F8AE
:102120000E48FFF7B1FB0E4B186010BD0A4C54224D
:10213000200000F03DF80B4B6365A365E365236663
:102140006366A366E36623676367A367E367236247
:10215000E361E5E753460000981800204C33000087
:10216000602600206921001007B5604601880A0A30
:102170000230DF2AFAD1C9B2820804D3028840882B
:102180000004104300E00068014A5050039007BD6E
:102190009818002001480421014B184760100020C6
:1021A000A9180010014B1B681847000060100020A0
:1021B000014B5B68184700006010002010B5002834
:1021C00000D110BD00F0B8F9FBE7C04610B5094AD0
:1021D0000300146884B0002C08D001220091064846
:1021E000524203A9A047012004B010BD00F0EEF94F
:1021F0000020F9E71C260020BD21001000BEFDE7ED
:10220000094A03001068002805D00849C3188B420A
:1022100007D81360704706480449C31810608B4202
:10222000F7D901204042F5E71422002000000420E5
:1022300094260020030010B508001100002B05D1E2
:10224000044B1A685B6800F019F910BD0120404288
:10225000FBE7C046785A00100300013B10B50800A8
:102260001400012B06D801230022210000F088F879
:10227000200010BD01204042FBE7C0460120404243
:102280007047C046012040427047C04610B5FFF776
:10229000B5FFC04670B5FFF757FB074D074EB54277
:1022A00009D20024013E761BB60808CD98472300CA
:1022B0000134B342F9D170BD645800106C5800105D
:1022C000030010B5080011001B68984710BDC046F8
:1022D000F0B5C64600B5437D07000C001600002B84
:1022E00046D0002A17DD0B780A2B24D0002398460D
:1022F000012E13D001252900635C01350A2B26D05D
:10230000B542F8D1464509DCA419013C23780D3BC0
:102310005A4253413B7580BCB846F0BD4346E01875
:10232000A419F11A013C3B68984723780D3B5A42A7
:1023300053413B75EFE7037D002BD7D102210F48B6
:102340003B689847012EDFD001239846D2E7631EF1
:102350005B5C0D2BD4D0884504DA4346C91AE018DB
:102360003B689847022105483B68A8469847C7E75D
:102370000368110020009847CDE7C046D45A0010EA
:10238000F0B54546DE464E465746E0B583B0914629
:102390001C0080460D00FEF7FDFF0023304A121896
:1023A0004B41002B02DA01222E4B52422E490800EB
:1023B0008A4603F021FA07006B1C03D1404602F065
:1023C000E9FF0500002C27D0284E294B1C68002C63
:1023D00018D04B46002B21D1264B994602E02469A8
:1023E000002C0FD02368002BF9D04B461B68002B24
:1023F00001D09C42F3D120002A004146B047246915
:10240000002CEFD1002F26D1280003B0F0BCBB4632
:10241000B246A946A046F0BD174ED6E7154B9946E1
:102420000A239B4602E02469002CEBD02368002B92
:10243000F9D04B461B68002B01D0A342F3D12A00F0
:1024400041462000B0476B465A462000DA71D91D3C
:102450000122B047E7E7504603F08EF9D4E7C046C3
:1024600040420F00FFFFFF7F08160020D12200101E
:10247000002200200C220020C1220010F8B557468F
:102480004E464546DE4698461A4BE0B59B461A4BEB
:1024900007000E0091469A46184D5B461C68002CBA
:1024A00003D115E02469002C12D02B68002B01D039
:1024B000A342F7D1A368002BF4D03100380098472D
:1024C0000028EFDDF0BCBB46B246A946A046F8BDE9
:1024D00053465B6A984508D85246926A4A4502D3E9
:1024E00002204042EEE79845FAD101200021FEF794
:1024F0005BFFD2E700220020004005400C220020B4
:102500000A4A1368002B05D10CE01A001B6910322F
:10251000002B07D08342F8D1002902D1186910603E
:10252000196170470029FCD01060FAE700220020F2
:1025300010B500F07FFA10BDF0B5CE46474680B525
:1025400083B06B460600DD1D2870FEF723FF0023D5
:10255000194A12184B41002B02DA0122174B524242
:1025600017490800884603F047F9164B81461C6856
:10257000002C14D0144F02E02469002C0FD02368E3
:10258000002BF9D03B68002B01D09C42F4D12000F5
:1025900001222900FFF79CFE2469002CEFD14B4655
:1025A000002B05D1300003B0C0BCB946B046F0BD29
:1025B000404603F0E1F8F5E740420F00FFFFFF7FE0
:1025C00008160020002200200C22002070B5040014
:1025D00002F0E0FE01230100050001222000FFF7C8
:1025E000CFFE084B1C68002C06D06368002B05D07A
:1025F00098472469002CF8D1280070BD2469002C6C
:10260000F3D1F9E7002200207047C0460022014BB9
:102610001A7070478B2600204B790020FF2B0BD1BE
:102620008B79002B08D1CB79012B05D1082A03D94E
:10263000024B8A7809301A707047C0468B260020FA
:102640000120704710B5012913D11249537910792F
:1026500009781B0203430020994200D010BD537833
:10266000012B08D0022BF9D1642200210020FFF7B2
:10267000B5F80120F2E7D37891781B021943480A94
:10268000DB0501D4012040427F238A05D20F194087
:10269000FFF72CF98B26002000487047A05B001044
:1026A00070B5050014000120012909D153780020DC
:1026B000012B05D1637912791B021343072B00D03C
:1026C00070BD21002800024A9F3301F055FAF7E758
:1026D000F85A00100123037000487047D85A0010C0
:1026E0004B780A781B0213438A7810B512041A43F8
:1026F000CB781B0613439622D200934200D010BD24
:102700000022012011004042FFF7F0F8024B186050
:10271000024B19607047C046A0210020A421002070
:1027200010B5024B1878FEF715F810BD8C26002066
:10273000154B70B51A68002A22D0EFF3108172B6DB
:1027400010680028FCD0BFF35F8F00200F4A59604B
:1027500010701B68BFF35F8F186081F3108800242E
:1027600000250B4E3078FDF7E9FF002804D1002446
:1027700000252900200070BD3078FDF7EBFFF8E759
:10278000FA240025A400ECE7402600208F26002034
:102790008C26002070B5040000200E0001F00AFB1A
:1027A000002834D0002001F01BFB00282FD0FEF7BA
:1027B000F1FD0023174A12184B41002B16DB164D72
:1027C000280003F019F8002821D0002001F0F2FAC7
:1027D00000280FD101200021404200F001FD032418
:1027E0006442280002F0C8FF200070BD01220B4B9C
:1027F0005242E4E7002001F0F3FA0028EAD0210079
:102800003200002001F0F6FA041EEAD1E7E70324C3
:102810006442E9E740420F0068260020FFFFFF7F87
:1028200010B5FEF7B7FD00230D4A12184B41002BDF
:1028300002DA01220B4B52420B4C200002F0DCFF6B
:1028400000280CD001200021404200F0C9FC0020EB
:1028500001F014FB0028F5D1200002F08DFF10BD1F
:1028600040420F00FFFFFF7F68260020F8B5DE46DC
:10287000574680B505000C00FEF78CFD0023364A54
:1028800012184B41002B02DA0122344B52423449D8
:1028900008008A4602F0B0FF002803D1C0BCBB4646
:1028A000B246F8BD002001F085FA00284AD0002683
:1028B000002C43DD2B4B9B4614E0A919002001F0AE
:1028C00017FB070001200021404200F089FC002096
:1028D00001F0D4FAFEF75EFD224BF619186059603C
:1028E000B4422BDD002001F023FBA71B0200B842FD
:1028F00000DD3A00002AE0D101200021404200F032
:102900006FFC002001F0BAFA002001F053FA002811
:1029100014D0002001F00CFB0028E1D1FEF73AFDB5
:102920005B460F001A685B68002184460E48121847
:102930004B419F4202D8D3D19445D1D9504602F0A1
:102940001BFFABE700200021064B18605960504682
:1029500002F012FFA2E7C04640420F00FFFFFF7FD8
:10296000682600209017002020A1070030B52A4CCF
:1029700085B00021200002F027FF00281CD1274B42
:102980001A68002A16D0EFF3108172B6106800287A
:10299000FCD0BFF35F8F01242148596002781B6887
:1029A000D2B20470BFF35F8F0020186081F31088EB
:1029B000002A17D005B030BD01200021404200F0B0
:1029C0000FFC002001F00CFA0500200002F0D4FEFC
:1029D000002DEFD0134B1B68002BEBD0124A106870
:1029E0009847E7E7FEF7C0FA0400FEF7D3FCFA22A7
:1029F0000023920012184B41002B02DA01220B4BEC
:102A000052420121029100210191094920000091C7
:102A1000FEF7AEFACEE7C04668260020402600202A
:102A20008F260020A0210020A4210020FFFFFF7F8F
:102A300031270010D02310B51B0684B01C68FEF7A8
:102A400093FAFEF78FFBA04202D0002004B010BD25
:102A5000294B002100201B7801F05EFD2748036808
:102A6000002B45D00120FEF70DF8FF23244C25490B
:102A700020701840FDF788FE20780121FDF74CFEFC
:102A80000520FDF76FFE002824D1082200211E48F2
:102A9000FFF788FBFEF768FA0400FEF77BFCFA22DA
:102AA0000023920012184B41002B02DA0122174B2F
:102AB000524201210291002101911549200000910B
:102AC000FEF756FA0028C0DB12480121FFF718FD77
:102AD0000120BBE70120FDF7EDFD0B4B01001800C5
:102AE000FEF732F8002205200B49FDF777FEEBE7F1
:102AF000FEF70EF8B6E7C046545D001068260020C9
:102B00008C2600206D29001040260020FFFFFF7F4B
:102B10003127001070100020212700100048704756
:102B20003C5C001000487047E85B001010B50400E2
:102B300017480378002B20D0002C06D1154B1648DF
:102B40004380063BFF3B038010BD052C1DD8134B73
:102B5000A400E05812490123013804E001330A803F
:102B60000231142B0DD0C25C002AF7D1C022DBB297
:102B70005B00920008481343E5E7112100F01AF8C2
:102B8000DAE7CA2304489B00DDE70020DCE7C04603
:102B90007426002009040000D8210020D05B00101A
:102BA000DA21002010B5024800F0D8F810BDC04668
:102BB0005826002030B54B1E012900D1A7E0664AF7
:102BC00011780D092C0030349F2900D9A2E004703F
:102BD000012B00D1BEE00F21147821400C003034CD
:102BE000092900D998E04470022B00D1B2E0547852
:102BF0002509290030319F2C00D990E08170032BEA
:102C000000D1A7E00F2121400C003034092900D960
:102C100087E0C470042B00D19CE09478250929003A
:102C200030319F2C00D97FE00171052B00D191E05C
:102C30000F2121400C003034092900D976E044717D
:102C4000062B00D186E0D4782509290030319F2C4D
:102C500000D96EE08171072B00D17BE00F2121406C
:102C60000C003034092966D8C471082B00D171E0FA
:102C700014792509290030319F2C5FD80172092B66
:102C800068D00F2121400C003034092958D84472F3
:102C90000A2B5FD054792509290030319F2C52D856
:102CA00081720B2B56D00F2121400C0030340929A2
:102CB0004BD8C4720C2B4DD09479250929003031A2
:102CC0009F2C00D9073101730D2B43D00F212140D8
:102CD0000C003034092901D937310C0044730E2B14
:102CE00038D0D1790C09220030329F2900D907321F
:102CF00082730F2B2ED00F220A4011003731092A80
:102D000001D830321100C173102B23D010300023B2
:102D1000037030BD07345AE737310C0063E70731E1
:102D20006CE737310C0074E707317DE737310C0071
:102D300085E707318EE737310C0095E707319DE7CE
:102D400037310C00A3E70731AAE737310C00C47212
:102D50000C2BB1D1C018DAE75826002010B588B086
:102D600004000D2200216846FFF71CFA0D22002105
:102D700004A8FFF717FA4B236A466846137004A9A4
:102D80000D2202F0F1FC1521082220006944FFF712
:102D90000FFA08B010BDC046F8B500F047F90C2393
:102DA000194DFF22AB6705201849FDF717FD184C98
:102DB000402200212000FFF7F5F9402700230126DB
:102DC0002121144A66702783A260136063545F3127
:102DD000618445396354104A10496360E260278773
:102DE000A1620B606362E26202F0DEFC80239B055D
:102DF0002E64EB6490230A4A0120EA508022094B9A
:102E00005202DA64F8BDC0460000115045050020AA
:102E10001822002084001050000110508000105033
:102E200010D001000020115010B501210520FDF740
:102E300073FC10BD10B500220021024800F016F905
:102E400010BDC04638220020044B1970002904D060
:102E500080219023024A8902D150704786260020A3
:102E6000002011500B785B0602D14B78052B00D067
:102E700070478A78014B1A60FAE7C046000011508B
:102E8000F0B5C646C87800B58007830F1800012B3F
:102E900060D08F780A794B797F213940FC091B0279
:102EA0004E001343334D32195201AA18977001276F
:102EB0006740577000275B055B0DD7701383D07692
:102EC000B846CA00012C32D02B4FBC468F01624459
:102ED000BC46AC446746BA6047461760002932D00A
:102EE000264AC90090466246414451603F223F3322
:102EF0009343022837D0224937190A687F01D31833
:102F00000B602049EF19FA608B422ED836197601F2
:102F1000AD19EB7E1C499B064A40134380221206E2
:102F200013436A681360012080BCB846F0BD174F98
:102F3000BC468F016244BC46AC446746BA62474611
:102F40001760002908D1002364012C196360104B1D
:102F5000E360E8E70020E7E70B4AC90090466246D5
:102F600041445162C2E75B00C5E7FEF7E7FCFA683F
:102F7000CCE7C046182200208400105004001050F6
:102F800024260020FF0F1050000010508000105029
:102F90000001105010B502F007FC10BD10B57F20E5
:102FA0000C0020404000E409110000191A00034BF6
:102FB0004001C01800F05AF8012010BD182200206E
:102FC0007F23180000B5084083B00B4204D14B4268
:102FD0004B41084A013393668022C9094000064BE1
:102FE000401840010021C018120102F015FC03B086
:102FF00000BDC04600201150182200207F2213007F
:1030000010B50B400A4200D110BDC9095B005B1826
:1030100004485B01C018002300220349C37002F07A
:10302000FBFBF1E718220020FFF7FFFF80220A4B8D
:10303000520410B51A60094B09491A6010000B6858
:103040009843FBD18022002152010648FFF7AAF8DD
:103050000922054B5A6710BD00E0004000F0004017
:1030600008C000400000105000001150002310B5AF
:10307000C3820133828283760161040002F0B4FBD3
:10308000002804D080219023074A8902D1502000D3
:1030900002F082FB002802D00123237710BD20001C
:1030A00002F0B2FBFAE7C046002011507047C0465C
:1030B0007047C04600207047002070477047C046E8
:1030C0007047C0467047C0467047C046024B5878AC
:1030D000431E9841C0B27047B81C0020024B1878BC
:1030E0004007C00F7047C046B81C0020F0B5D64658
:1030F0004F464646C0B52F4B07009A461B780E0038
:10310000FF2B50D1002941D0002154222A48FFF73B
:1031100049F80022294C2A4B20001A70FDF7F8FCD0
:10312000284B1C60284C2000143CFDF7FFFC2000BD
:1031300001F0FAFD254B264D1C60264B002B04D0D8
:103140002800FFF7C7FA244B186024490024894659
:103150002149002388462A7810E043461B68620113
:103160009B18002B12D05B68002B0FD098472A7851
:103170000134E4B2511C2300A14209DBA242ECD885
:103180009B1A5B014B445B68002BEFD100200BE0E6
:103190005346310038001F70FFF7FEFD0028F5D0C0
:1031A0003800FFF741FE0120E0BCBA46B146A84610
:1031B000F0BDC046A4100020B81C0020B01C0020A8
:1031C000872600200C1D00209C100020101D0020D0
:1031D00085260020D5260010081B0020F85C001072
:1031E000F0B5DE4657464E464546E0B5C84B91B071
:1031F00002931B78FF2B00D13EE1C64BC64E9B4687
:103200005F46C64B0DAC0193C54B009335686A69A8
:10321000EFF3108172B61368002BFCD0BFF35F8F01
:10322000A9612800210001F0AFFB6A69AB69BFF317
:103230005F8F0021116083F31088002800D11BE10B
:103240006378082BE2D89B00FB589F466368002BED
:10325000DCD0A0689847D9E77F222179AF4D0A409A
:103260005300EB189846C80980444046012330308B
:1032700005799D430571057903339D430571002A46
:1032800000D100E14346A74A1B7D1278934200D348
:10329000EFE0A54A5B011568ED18002D00D1EBE0C9
:1032A000A36862792078AD69A847AFE79F4A137891
:1032B000002B00D1E0E01378013BDBB213701378F0
:1032C000002BA3D10122954D01212B78042013431B
:1032D0002B703423EA5C8A43EA54EA5C8243EA5462
:1032E0000133EA5C8A43EA54EA5C8243EA54237875
:1032F00000209B4600F09EFC602223791A40602A41
:1033000000D1EFE0402A00D1F5E0DB06DB0E012B17
:1033100000D113E1022B00D1C7E0002B00D0E1E087
:10332000202A00D11CE2002A00D0DBE06379092BBF
:1033300000D9D7E07E4A9B00D3589F46774D2B7823
:10334000DB0700D462E7FFF7BFFE5FE7019BDB7896
:10335000DB0700D45AE76068FFF7AAFE56E76F4D17
:103360002B78DB0700D451E728780007C00FFFF760
:10337000A9FE4BE723786A4999468B46694B6A490F
:1033800098468A4639001A7847460023B0460025F9
:103390004E46894610E053461B686A019B18002B75
:1033A00000D176E0DB68300098473A780135EDB21D
:1033B000511C2B008D4244DC9542ECD39B1A5B01DF
:1033C0005B44EFE7237858499946564B8A4698461E
:1033D0003100BB464E461A780025002347468946F1
:1033E0000FE053461B686A019B18002B55D0DB6821
:1033F000300098473A780135EDB2511C2B008D42D0
:1034000007DC9542EDD39B1A009A5B019446634416
:10341000EDE7019D542200212800FEF7C3FE102293
:10342000FF214448FEF7BEFE28002022FF21143071
:103430004E465F46FEF7B6FE00F0F2FBFFF740FE99
:10344000E4E6364D542200212800FEF7ABFE1022A0
:10345000FF21281DFEF7A6FE28002022FF211430A0
:1034600046464F46FEF79EFE00F0DAFB2379AB702E
:10347000CCE6501C984213DA11B0F0BCBB46B24601
:10348000A946A046F0BDA3686279207800F0E6FB6B
:10349000BCE646464F46214DE6E74E465F46CBE743
:1034A0001F4D9B1A5B015D19FAE67023217A0B42CE
:1034B00018D1C80982460F330B405B009846194863
:1034C000EB1853441B7D00789946834266D2164818
:1034D0005B01006881469944002A00D15FE14B46B8
:1034E000002B68D120780021FFF76AFD8021207829
:1034F000FFF766FD8AE6104800F09CFB0121584664
:103500000EAAFFF7CDF8002800D07FE6EAE7C04614
:10351000A4100020505C0010101D0020B81C0020DA
:10352000F85C001085260020081B0020872600205C
:10353000745C0010BC1C0020A1260010237A0F2B05
:10354000D0D8CF4AEB181B791578AB423ED3691C13
:103550009942C7DB5D1BCB4B6D01ED18686900F02C
:1035600069FB012158466B690EAA9847002800D0D4
:103570004CE66022150023791D401A42B2D16379CE
:103580000A3B012BAED800F055FB63790A2B00D122
:1035900099E158460EA900F0D9FA37E6431C4B458D
:1035A00000DAF7E04B461B1A5B019946B5488144A7
:1035B000002A00D1F3E04B46586900F03BFB4B4634
:1035C000012158465B690EAA98479CE7AE4A5B0109
:1035D0001568ED18002DC1D184E7A37999466B7861
:1035E0009945D6D06B78002B00D033E14B466B70F9
:1035F000002B00D12BE148460138C0B2FFF792FA08
:10360000002800D17EE143780793022B00D079E1B6
:103610000122C179B1468B11491113400A40302172
:1036200012015B0113432A78A8468A4313432B7087
:1036300009239A4682445646BA46C37882781B02CA
:103640001343C31805938E4B04938E4B08938E4BF4
:1036500009938E4B0A93059BB34200D855E17378CA
:1036600001220B2B03D13378F278F6187378042BF0
:1036700000D044E1059B00279B1B9BB20693049B53
:103680000B921D78002303931BE0099A7B011568B8
:10369000ED18002D00D132E1310058462B69069A11
:1036A00098478446082803D9069A824200D313E13A
:1036B000049B01371D78FFB26B1C03979F4200DD0E
:1036C0001DE1BD42E1D8039B5D1B089B6D019C463B
:1036D0006544E1E76B780CAA023213705846012367
:1036E0000EA900F049FA91E5E3881A0AD8B20F2A28
:1036F00000D9F7E666499300CB589F460EA800F024
:103700009FFA5846A179FFF795FB02222B781343C5
:103710002B707BE5E388012B00D0E3E608222B78B1
:10372000584693430EA92B7000F010FA6EE5022064
:1037300029780CAB9A1C8B068908DB0F01400B43E0
:103740001380584602230EA900F016FA5EE5E388BE
:10375000012B00D0C6E608222B7813432B7018E704
:10376000237A0F2B00D9BDE6EB181D79444B1B784B
:103770009D4228D2444B6D011B685D19002D00D17C
:10378000B0E6686900F056FA012158466B690EAA46
:103790009847B8E6002A00D0A4E60023994662794B
:1037A0000220130003928343012B15D0002A00D07E
:1037B00098E62B004344534430331B790CAA9B07F3
:1037C000DB0F0232BCE75A1CAA4200DA8AE6ED1A85
:1037D0002C4B6D01ED18D4E7E388002B12D1029B2E
:1037E0001878039B012B23D0FFF7EAFB4346022105
:1037F000EB18534430331A790A4301211A711A79AC
:103800000A431A714B46002B00D1FFE4586900F0BF
:1038100011FA4B4601215B690EAA584698470020D1
:1038200000F008FA3523EB5CDB0700D5EEE4B0E6E8
:10383000FFF7E4FB43460221EB18534430331A7977
:103840008A431A711A7903998A431A71DAE7FFF7E2
:1038500037FC9EE600215846FFF7F6FA5846FFF778
:1038600099FBAB78074903930491054B06499846A9
:103870001A780591002329001D008A461BE0C046E6
:1038800085260020F85C0010081B0020CC1C0020BE
:103890009C5C0010059B6A011B689B18002B4DD097
:1038A000DB685846984743461A780135EDB2511CFB
:1038B0002B008D422EDC9542ECD39B1A049A5B01BF
:1038C00094466344ECE70CAB9A1C584601230EA9BE
:1038D000157000F051F999E40B9A012A4FD0002A93
:1038E0003CD00023B07804E00133DBB20F71934287
:1038F00034D2C118C9B241440D79FF2DF4D04E46DF
:103900004546574600236B70ECE54E465746FFF799
:10391000D5FB3EE65546542200212800FEF742FC26
:103920001022FF21281DFEF73DFC28002022FF2148
:103930001430FEF737FC039BAB7057E65546FAE7A9
:10394000FEF7AAFE021E00D1CCE5D37891781B02C7
:103950000B4358460EA900F00FF9D4E565463B002D
:103960002A0031000A9800F07FFEAC46049B039ABF
:103970001B7866440133934200DB6CE6BFE7174BCC
:1039800029699942ADD1079AABE7FFF793FB021E75
:1039900000D1A7E5584613780EA900F0EDF8B2E57E
:1039A0002189FFF7C3F8021EF4D19BE5022A0FD04C
:1039B000FFF782FB021EC8D194E5FFF7AFF8021EA5
:1039C00000D18FE5122358460EA900F0D5F89AE5EC
:1039D000FFF7A8F8021EB8D184E5C04631400010B8
:1039E000F8B557464E46DE4645460C00E0B5160093
:1039F0001F00002A3CD0702398461E4B00259B4692
:103A00001D4B9A461AE05B461B78200099465346A8
:103A1000997800F0EBFD00281CD021004846FFF704
:103A20002FFA002816D0A378DA09012A19D00A9AA9
:103A3000013513702378E418B54219DA6378052B41
:103A400008D1E3789B079B0FBB4203D14246A37882
:103A50001A42D8D00020F0BCBB46B246A946A046C8
:103A6000F8BD0B9A013513702378E418B542E5DBF5
:103A70000120F0E7A4100020B81C0020702270B5CF
:103A80008B780C001A4201D0002070BD064B20003C
:103A90001D78064B997800F0A9FD0028F4D021008C
:103AA0002800FFF7EDF9F0E7A4100020B81C002073
:103AB0000B007F2010B51840DB0934334000044A66
:103AC000C018044B1168C01800F04CFD10BDC04672
:103AD0000C1D0020B81C00200B007F2010B51840E2
:103AE000DB0934334000044AC018044B1168C01885
:103AF00000F060FD10BDC0460C1D0020B81C002069
:103B000070B57F240F480C4064000419CD09641976
:103B100030342079C00701D5002070BD01262579F9
:103B20000948354300782571FFF738FA0028F4D1A9
:103B30000122237993432371237903329343237121
:103B4000EAE7C046B81C0020A410002070B5094C5C
:103B50000600082220000D00FEF72AFB002380212A
:103B6000E360A3602B783000994300220023FFF725
:103B7000C7FF70BD981C0020F8B5CE46474690465A
:103B8000254E80B58146082230000D001F00FEF74B
:103B90000FFB4346B3600023F381EC79AB79240239
:103BA0001C43231CBC4200D93B1C9FB2B381002C98
:103BB0000DD0002F17D04246002A2BD0402F1BD803
:103BC0009FB233787F2B1CD80021144A0FE080214C
:103BD0002B780022994348460023FFF791FFC0BC91
:103BE000B946B046F8BD7F230022317899433B00A7
:103BF0004846FFF785FFF2E740239FB233787F2BDB
:103C0000E2D9064C3A0041462000FEF7D1FA802165
:103C10002200ECE70020E2E7981C0020581C00205E
:103C200010B5142200210248FEF7BCFA10BDC046B0
:103C3000981C0020014B18617047C046981C00205A
:103C400010B5054C010008222000FEF7B1FA002350
:103C5000A360E36010BDC046981C002070B5384CCE
:103C60001D0023780600DA09C9098A4210D0002015
:103C7000002D00D070BD21003000FFF7F3F823695C
:103C8000002B03D022000321300098470120F1E7E8
:103C90007F2B06D8A068002834D02A002949FEF7D7
:103CA00087FAE289A1685219E38892B24919E28140
:103CB000A160934214D03F2D12D9A389981A051CF4
:103CC00080B240282AD82078ADB27F2828D8002199
:103CD0009A4232D01B4A2B003000FFF711FFC9E790
:103CE0002369002B05D022000221300098470028CC
:103CF0000AD0802123780022994330000023FFF767
:103D0000FFFEB7E70020B5E700213000FFF758F9C4
:103D100030008021FFF754F90120ABE74025D2E7BE
:103D20009A4207D0074C2A002000FEF741FA802172
:103D30002200D0E780210022CDE70022CBE7C04659
:103D4000981C0020581C002070B50400FFF7BEF935
:103D5000002800D170BDFFF7C1F90028FAD1C823AF
:103D60006343124DEE18F1780029F3D010335D193A
:103D7000280000F0F3FD3F28ECD90020F178FFF790
:103D800097FE0028E6D0280000F0E8FDF1783F28F3
:103D900007D9074BE201D21800204023FFF7B0FEFD
:103DA000D8E70020FFF798FED4E7C046901B00201C
:103DB0000C1B002010B50400FFF788F9002801D182
:103DC000002010BDFFF78AF90028F9D1C82262430C
:103DD000024B01309B181B791840F2E7901B002022
:103DE000C82310B543430248181800F099FD10BDD0
:103DF000A01B0020F8B5C824802344431C4F103476
:103E000005003C195B029A4200D31A4A200092B284
:103E100000F008FE0600FFF759F9002801D1300034
:103E2000F8BDFFF75BF90028F9D1C8236B43FF18F1
:103E3000FB78002BF3D0200000F090FD3F28EED956
:103E40000020F978FFF734FE0028E8D0200000F0C9
:103E500085FDF9783F2807D9074BEA01D2180020E1
:103E60004023FFF74DFEDAE70020FFF735FED6E7E7
:103E7000901B0020FFFF00000C1B0020F8B5040081
:103E8000FFF724F9002801D10020F8BDFFF726F93B
:103E90000028F9D1C82565432E00134F2436F619A2
:103EA000300000F03DFD0028EED07F190020B978E9
:103EB000FFF7FEFD0028E7D00C4DE401651929004D
:103EC0004022300000F0AEFDB978041E08D0030097
:103ED0002A000020FFF714FE0028D5D02000D4E7E8
:103EE0000020FFF7F9FDCFE7901B00204C1B0020BE
:103EF00070B5C82444430C4B0500E41880235B02D2
:103F00009A4200D3094A200092B200F051FE060006
:103F1000200000F005FD3F2801D8300070BD2800CA
:103F2000FFF7ACFFF9E7C046B41B0020FFFF00001D
:103F3000C82310B543430248181800F00FFD10BD08
:103F4000B41B0020F0B50025184C83B0C822002116
:103F50002000FEF727F9164B21001D70FF23637127
:103F6000E1235B02A360200008234022A3733831C1
:103F70000095073B103000F09DFC27000123210035
:103F800020002600402278310093B837243000F01A
:103F900091FCC0363800FCF7BBFD3000FCF7B8FDE3
:103FA000E56127622663656303B0F0BD901B0020C6
:103FB0008C1B00200A4A116B136A00290CD0002BBD
:103FC00007D00023D36153631363002313620120DE
:103FD000704753631363FAE7002BF8D0D161F4E71D
:103FE000901B002070B50F4C052200212000FEF729
:103FF000D9F80D4D2B78DA0707D50C4C9B070CD55B
:104000000121200000F0B0FE70BD2000103000F053
:104010008BFE2B78054C9B07F2D4200000F084FE29
:10402000EEE7C046901B00208C1B0020B41B002034
:10403000F0B54B79060083B0022B02D18B79022BAD
:1040400003D00025280003B0F0BD204FBB78002B23
:10405000F7D18B7809253B700C780C196378242BE9
:1040600007D00CE02378E4185D196378ADB2242BF7
:1040700005D19542F6D90020FFF766FEE2E71A0067
:10408000052B15D0042AF6D163790A2BF3D1104BF6
:10409000277801930133009330000223E119023A9B
:1040A000FFF79EFC0028CCD00E35ED19ADB2E2E74B
:1040B00021003000FFF7E2FC0028C2D0A3787B701B
:1040C00023785D19E4186278ADB2DBE7901B00201D
:1040D000921B0020F8B560231400127805001340ED
:1040E0000020202B07D1304A6379277916781B02EC
:1040F0003B439E4200D0F8BD6378222B1AD007D8EC
:10410000202B34D0212BF6D101293ED00120F2E71B
:10411000232BF0D1012940D00329F7D1234B002BC9
:10412000F4D0E178A37809020020194300E000BF31
:104130000120E0E7012930D00329E7D101252E0035
:10414000A378E478023924021C43147126402432F7
:104150001000714000F008FE154B002BD6D062080D
:10416000002031002A4000E000BF0120C3E7012900
:104170000BD00329CAD10F4B002BC7D00832002027
:104180001100FEF7ADFA0120B5E707232100280052
:10419000094AFFF7F1FC0120ADE721002800FFF7F5
:1041A000D5FC0120A7E7C046901B002000000000BE
:1041B00000000000E1260010981B0020F0B54F46DB
:1041C0004646D646C0B5364D8046EA780C001F00FC
:1041D0008A423CD0AB788B4210D00020E0BCBA467B
:1041E000B146A846F0BD2F4B002B04D02E4800F05E
:1041F000ADFB002851D00020FFF7A6FDAB78A3420D
:1042000001D00120EAE7294B002B02D0002000E07A
:1042100000BF0020FFF732FE0028F2D1244C20001E
:1042200000F07EFB0028ECD1002FEAD0BF06E8D1D9
:10423000243C4046A178FFF73BFC0028E1D0002356
:1042400000224046A178FFF75BFC0120C6E79AB246
:1042500010239A46174EAA443100504600F0A8FC9D
:10426000154B002BBFD06B79FF2BBCD0002FBAD0E1
:10427000F219914603E001364E45B4D06B7932789D
:104280009A42F8D1504600F061FB0028F3D1534622
:10429000103B597900E000BFEDE700E000BFAAE75E
:1042A000901B002000000000A01B00200000000068
:1042B000B41B00200C1B0020000000009322F0B56E
:1042C000134C85B0002120009200FDF76BFF230006
:1042D0002000802640270F4D4D337600FF332930D4
:1042E0000295009300220023002103970196FF30DE
:1042F00000F0D4F94035201D28340023012200218C
:10430000039702950196009400F0C8F905B0F0BD3E
:10431000541E0020D41D002010B5054C200000F0D4
:10432000F3F920002538FF3800F0EEF9012010BD28
:104330007C1F002070B5084C002520003130FF3074
:10434000257000F0F1FC20000C3000F0EDFC2A2379
:10435000FF33E554657170BD541E0020F8B5574613
:104360004546DE464E46E0B54B7980460F00FF2BB2
:104370005BD1404B99462A234946FF33CB5C002B47
:1043800053D14E79002E50D1BB783C780B703B79DD
:104390003C19002B46D098235B004B449A460C23D3
:1043A0004B449B46A51803E0AC423BD22378E4186B
:1043B0006378052BF8D1AC4234D221004046FFF798
:1043C0005DFB002831D0A3780136F6B2DB09012B62
:1043D00032D0504600F0A8FC2A234946A278FF3389
:1043E000CA54637922791B021343234A5B0594461E
:1043F0005B0D942163445A4253414A4602204900CE
:10440000525C5B00824313434A4653545146404634
:10441000083900F0E3F9002807D02378E4183B7945
:10442000B342C5D8E01B80B200E00020F0BCBB4620
:10443000B246A946A046F8BD584600F075FC5A465B
:10444000A3780C3A5371637921791B020B430A4913
:104450005B058C465B0D634459424B410220117948
:104460005B0081430B43594600200839137100F06B
:1044700081F9D2E7541E002000FEFFFFF8B52A257F
:1044800006001F48FF35455D1F008D4215D043795A
:104490008B4201D00020F8BD1A4B002B04D0390408
:1044A0000020090C00E000BF174C3000210000F094
:1044B00061F900281DD00120EDE79A235B00C35A63
:1044C000002B0DD1114B002B04D000201049BAB2A3
:1044D00000E000BF30000F4900F080F90120DAE76A
:1044E00096235B00C1583130BAB2FF3000F060FB58
:1044F000E8E73A002100300000F008F90120CAE79F
:10450000541E002000000000581E00200000000083
:10451000D41D00207C1F002000B5030083B00029BB
:1045200010D00020012B07D80A78002A04D00C48AC
:10453000C2540120012A01D003B000BD1800FEF7CB
:10454000D5FDF9E701236A46002001A99380FEF713
:10455000CDFD0028F0D00122014B1A70ECE7C046D7
:10456000AC1C0020037870B5DB0704000E00DD0FE3
:10457000002B17D103785B0701D5280070BD0121FE
:104580003000494201F028F92378DB07DD0F002BCA
:104590000AD123785B0708D404222378012513432A
:1045A000237002E00025E8E70025300001F0E4F880
:1045B000E3E7C04670B50C00012106004942200027
:1045C00001F00AF933785B07DD0F002B04DB2000D4
:1045D00001F0D2F8280070BD3378DB0704D4042240
:1045E000337893433370F2E70025F0E7437902799B
:1045F0001B021343C2785B0592075B0D920F022AE0
:104600001DD0032A0CD00020012A08D102394A42C9
:104610005141124A9446614499424041C0B27047A8
:1046200002394A1E91410E4A494211408022D2006D
:1046300094460020614499424041C0B2EFE702290C
:1046400005D0002040229A424041C0B2E7E7054A27
:10465000981843425841C0B2E1E7C046FF0300004A
:1046600040FCFFFF00FEFFFF8A1870B5914207D2A1
:104670007F264C78052C04D00C7809198A42F8D88A
:1046800070BD34008D782C4064000419ED09635529
:104690000C7809198A42ECD8F2E7C046F0B5C64654
:1046A00000B582B0150008AA40CA040017886A46FF
:1046B000928D012090460A0021780240814320001B
:1046C000114321703A00009331000123083000F0BB
:1046D000F1F8002E01D0002F08D10A9B0120636061
:1046E0004346638002B080BCB846F0BD26001C364D
:1046F0003000FCF70DFA0023002D01D03300002616
:104700006361A661E9E7C04601207047F8B502245D
:104710000B7807001C4063425C41144B64421C4010
:10472000134B08009C4608300D001600644400F04E
:10473000F7F8002807D1002E05D0344203D1012418
:104740002B781C4201D00020F8BD38006978FFF7B3
:10475000AFF90028F7D02B781C42F4D100230022B7
:1047600038006978FFF7CCF9EEE7C04640FEFFFF5E
:10477000FF010000F8B50D000835060028000C0008
:1047800000F0CEF8002803D0012723781F4201D083
:104790000020F8BD30006178FFF78AF90028F7D0D3
:1047A00028006288616800F03DF9237805001F4009
:1047B00000280BD0002FEBD1030062683000617835
:1047C000FFF79EF90028E3D02800E2E7002FDFD1B1
:1047D00030006178FFF780F9DAE7C046F8B5CE46D9
:1047E000474680B58A8906000C000B78002A07D15D
:1047F00001251D4240D00020C0BCB946B046F8BDDE
:104800009B0733D42A4B40259946270008373800A8
:1048100000F0A4F88542EED80122237890461A428F
:10482000E9D130006178FFF743F90028E3D0380080
:1048300000F094F8424623781A40854231D8002A85
:10484000D9D14A46638802401D1C934200D9151CE9
:10485000ADB200226178002D00D062682B003000DC
:10486000FFF74EF90028C6D02800C5E7FE238025B3
:104870001B029946AD00C8E74978FFF719F90028EF
:10488000B9D023781D42B6D1638800226178002B0D
:1048900000D062683000FFF733F90028ABD06088A1
:1048A000AAE7002AA7D130006178FFF715F9A2E73F
:1048B000C0FF0000F0B5C64600B504006846057E9E
:1048C0008020884617001E000002824226D8E06839
:1048D000002803D00121494200F07EFF2069002812
:1048E00003D00121494200F077FF4346236073045F
:1048F0005B0CED031D430023E0686381A780E58026
:104900002381002801D000F037FF2069002801D062
:1049100000F032FF012080BCB846F0BD0020FAE76D
:1049200010B5048941898288A3B288B28C4207D32A
:104930001B1A9BB2101C9A4200D9181C80B210BDE1
:104940005100091A5B189BB2F4E7C04603894089FD
:10495000181A43425841C0B27047C04610B5048986
:1049600041898288A3B288B28C4207D31B1A9BB2BA
:1049700000209A4201D9D21A90B210BD5100091AF2
:104980005B189BB2F4E7C04670B5040000690E00E6
:10499000002803D00121494200F01EFF25896089CB
:1049A000A288A9B283B2854232D3CD1AADB2002D0E
:1049B00028D0AA4208D291422FD3891A8BB26381A0
:1049C0009A4203D89B1A9BB29A42FBD9E28821688B
:1049D0005204520C53433000C918FDF7E9FB6389B8
:1049E0000125591C89B2A2888B420DD900215200A1
:1049F000891A89B220696181002801D000F0BCFECB
:104A0000280070BD618989B252009142F2DBEFE764
:104A10005500ED1A4D19ADB2C9E789188BB2638103
:104A2000CEE7C046F0B546464F46D646C0B506006E
:104A3000006989469046002803D00121494200F0D0
:104A4000CBFE31897289B5888BB294B2914254D32E
:104A50001F1BBFB2002F4AD0BD4205D2AB4251D27C
:104A60005B199CB22F0074814346B8453DD89FB274
:104A7000A54203D8641BA4B2A542FBD9F2883168D1
:104A80005204520C904662432B1B9BB2891842463B
:104A90009F4225D953439BB21A0048469A46FDF7D8
:104AA00087FB434648467D1B64195C43316850448C
:104AB000A2B2FDF77DFB7189B588CB199BB26A0064
:104AC000994216D99B1A9BB230697381002801D094
:104AD00000F052FE3800E0BCBA46B146A846F0BD30
:104AE00048467A43FDF764FBE5E73B1CBFE7738963
:104AF0009BB26A009342E7DBE4E76F003F1BDF19DC
:104B0000BFB2A7E75B1B9CB2ACE7C046F8B5040098
:104B1000C0680E00002803D00121494200F05CFE6D
:104B2000258920896189A288ADB283B28FB288427B
:104B300029D3DB1B9BB29A4209D8E779FF0906D13A
:104B4000E068002801D000F017FE3800F8BD2B0007
:104B500095421DD39B1A9BB29342FBD2E2882068F8
:104B60005204520C53433100C018FDF721FB6B1C5B
:104B70009BB2A2889D4217D9002352009B1A9BB278
:104B800001272381DCE75100C91B5B189BB2D2E7E8
:104B9000E28820685204520C53433100C018FDF7DC
:104BA00007FB0135A288ABB252009342E8DBE5E790
:104BB000F0B54E465746DE464546E0B58946060006
:104BC000170083B0002A67D0C068002803D00121F5
:104BD000494200F001FE3389F2799BB2984673890D
:104BE000B5889BB2D20940D198455ED26A00D31AEB
:104BF00043449BB2AB425DD2EB1A1A1C9BB2BB4240
:104C000000D93A1C97B27B1B9BB20193F3885B04DB
:104C10005B0C9A464346DB199BB29B464446A8452B
:104C200003D3641BA4B2AC42FBD253466343306847
:104C30002D1BADB2C018BD424BD3524649467A43F4
:104C4000FDF7B6FAB3885B00D84501D89B4503DB76
:104C50005A46D31A9BB29B465B463D003381F068AF
:104C600000281AD000F088FD17E0F2885204520C98
:104C70009246AF4220D298454DD34246D21A92B2C4
:104C80006900781B80B2D21901908A4233DA434618
:104C9000FB189BB29B46C1E70025280003B0F0BC7F
:104CA000BB46B246A946A046F0BD4246D31A9BB2C7
:104CB000AB42A1D30025D2E7002DD0D07F1B5743B4
:104CC00098465A19002392B2B94493462F00019393
:104CD000A4E753465D43ADB22A004946FDF768FAA2
:104CE000019B2900E21853465A43306892B2494466
:104CF000FDF75EFAA6E75A1992B29346D21B92B21A
:104D0000904693420CD94346591A8BB29846FB18E9
:104D10009BB29B4682E76900CA1A424492B2B0E74E
:104D2000914200DD7AE7EEE710B50400C068002884
:104D300003D00121494200F04FFD2069002803D033
:104D40000121494200F048FD0023E068638123818E
:104D5000002801D000F010FD2069002801D000F0EB
:104D60000BFD012010BDC04670B50400C0680D00E9
:104D7000002803D00121494200F02EFD20690028BF
:104D800003D00121494200F027FD7F21E379ED01A5
:104D90001940E0682943E171002801D000F0ECFCE3
:104DA0002069002801D000F0E7FC012070BDC0465A
:104DB00010B5024800F0DCFA10BDC046981900207A
:104DC00010B5024800F0D6FA10BDC0469819002070
:104DD000F0B5C64600B50C228B5E07000C001A0722
:104DE0004DD48021626809011943A181002A69DD3F
:104DF000A56A002D3FD000223E683A60DB0466D4ED
:104E0000002201233800E169A8470200431C6BD04F
:104E10000C23E15EA56A490706D56368D21A236BA5
:104E2000002B01D0E36BD21A00233800E169A847B8
:104E30000C23E25E431C4CD139681D295ED8314BEE
:104E4000CB40DB075AD5304B1340A381002363606E
:104E500023692360D20401D5002943D0216B3E6031
:104E6000002908D023004033994202D0380000F0D6
:104E700019FB00232363002080BCB846F0BD0E69F7
:104E8000002EF8D00D680022AD1B0E609B0700D1EC
:104E90004A69A260002D04DCEDE736182D1A002DBA
:104EA000E9DD636A3200984638002B00E169C047AB
:104EB0000028F2DC4022A38913431BB20120A38106
:104EC0004042D9E7E26B002A00DD91E7D3E7226D8B
:104ED000A1E70D4B1340A381002363602369236086
:104EE000D204BBD52065B9E73B68002B00D18FE722
:104EF0001D2B01D0162BDDD13E60BCE740231343B0
:104F0000DCE7C04601004020FFF7FFFF70B5050059
:104F10000C00002802D0436B002B27D00C22A35E8C
:104F2000002B11D0626ED20701D49B050ED528004C
:104F30002100FFF74DFF636E0500DB0702D4A38954
:104F40009B050FD5280070BD0025FBE7A06D00F084
:104F50000FFA28002100FFF73BFF636E0500DB0717
:104F6000F0D4ECE7A06D00F005FAEBE700F0F8F8FC
:104F7000D4E7C04670B5041E2AD0194B1D68002D19
:104F800002D06B6B002B17D00C22A35E002B11D02C
:104F9000626ED20701D49B0512D528002100FFF7CD
:104FA00017FF636E0500DB0702D4A3899B050BD5B1
:104FB000280070BD0025FBE7280000F0D1F8E3E7EA
:104FC000A06D00F0D5F9E8E7A06D00F0D3F9EFE7A8
:104FD000044A0549054800F0EFF80500E8E7C04637
:104FE000C4140020B81400200D4F0010C814002075
:104FF00010B5034A0349044800F0DEF810BDC0466E
:10500000B814002095560010C814002041680B4BBE
:1050100010B50400994201D000F03CFBA168084B98
:10502000994202D0200000F035FBE168054B99421F
:1050300002D0200000F02EFB10BDC046CC1900208D
:10504000341A00209C1A0020F8B5CE4647463B4C47
:105050003B4B3C4A2000002580B51A6004230822FF
:1050600000215C3025606560A5606566256165612D
:10507000A561E360FDF796F82000334B334F344EC3
:1050800099462362334B58309846A762E6626362C2
:10509000E46100F069F9CC23E5502F4B20006367F1
:1050A000802300210822C430E550A566E566256707
:1050B000A567E567FDF776F8220084236832E250A1
:1050C0004A460433E250424620000433E25004339F
:1050D000E750C0300433E65000F046F9D0232000FA
:1050E000E5500433E5500433E5501C4A5C33E55089
:1050F000583BE2500433E5502D300433E550002195
:1051000004330822FF30E550FDF74CF82200EC2371
:10511000D032E2504A460433E25020004246043383
:10512000E25029300433E750FF300433E65000F0FA
:105130001BF9C0BCB946B046F8BDC046CC1900202A
:10514000041B0020F14F0010FD51001065520010AB
:1051500091520010255200100900010012000200B7
:1051600070B50400094D280000F002F9636B002BB4
:1051700005D1074B6363074B1B68002B03D0280046
:1051800000F0F8F870BDFFF75FFFF8E79C1900200A
:105190000D500010041B002010B5024800F0E8F884
:1051A00010BDC0469C19002010B5024800F0E2F87E
:1051B00010BDC0469C190020F8B54746CE4688462B
:1051C00080B58146170000267D68BC68013D0DD47E
:1051D000A389012B07D90E22A35E013303D021003E
:1051E0004846C04706436834013DF1D23F68002F6E
:1051F000EAD13000C0BCB946B046F8BD70B50C006D
:105200000E25495F00F070F8002803DB236D1B18A2
:10521000236570BDA389024A1340A381F9E7C04604
:10522000FFEFFFFFF8B50C001F000C23C95E05005F
:105230001600CB050AD40A4B320019402800A18180
:105240000E23E15E3B0000F075F8F8BD0E23E15E31
:105250000022022300F034F80C23E15EEBE7C046A5
:10526000FFEFFFFF70B50C000E25495F00F028F836
:105270000C22A35E421C05D08022520113432065FC
:10528000A38170BD014A1340FAE7C046FFEFFFFF5C
:1052900010B50E23C95E00F001F810BD002370B5F3
:1052A000064C050008002360FCF7E8FF431C00D013
:1052B00070BD2368002BFBD02B60F9E7082200208B
:1052C00070B50400080011001A000023054D2B6082
:1052D000FCF7D8FF431C00D070BD2B68002BFBD01F
:1052E0002360F9E70822002070B5040008001100CF
:1052F0001A000023054D2B60FCF79CFF431C00D0D7
:1053000070BD2B68002BFBD02360F9E7082200203A
:10531000002370B5064C050008002360FCF770FF01
:10532000431C00D070BD2368002BFBD02B60F9E735
:105330000822002070B50400080011001A000023A4
:10534000054D2B60FCF788FF431C00D070BD2B6817
:10535000002BFBD02360F9E708220020014B1868DE
:105360007047C046C41400207047C0467047C0460E
:105370007047C0467047C046802310B55B010828BF
:1053800001D1180010BDFFF7E9FF16230360173B9A
:10539000F7E7C04610B583070AD00300032102E0F7
:1053A00001330B4205D01A78002AF9D1181A10BD22
:1053B000030019680C4A0D4C8A188A4322420FD107
:1053C0005968094A04338A188A43224208D1596825
:1053D000054A04338A188A432242F1D000E001339F
:1053E0001A78002AFBD1E1E7FFFEFEFE8080808074
:1053F000F0B5C646060000B508200D00FFF7BCFF5B
:1054000004003000FFF7D4FC234B210098469B6832
:105410005F6803239F4338001138401B0019FCF7D5
:10542000B7FB451E6543AC4208DC00213000FFF7A6
:105430006FFF43469B68DB19984206D03000FFF7A8
:10544000BFFC002080BCB846F0BD30006942FFF7C9
:105450005FFF01300ED0012243467F1B9B6817433C
:105460000E4A5F60136830005B1B1360FFF7A8FCF7
:105470000120E7E700213000FFF74AFF43469A6822
:10548000831A0F2BDADD064C04492468001B0860E0
:1054900001210B435360D1E7B0100020A019002078
:1054A000A8100020F0B5D6464F46464605000C0031
:1054B000C0B5002948D0FFF77BFC2100012708393F
:1054C0004B6803209C46BB43CE18726882436046FB
:1054D000384080466A4891468468B44200D17CE0F6
:1054E0007260B41864683C40A2464446002C30D137
:1054F0000C68A446091B8C686344A4460824A04693
:105500008044C4455CD0CC68A04664464246E26014
:1055100094605246002A1FD01F434F6033608022A0
:105520009200934230D2DA085C090123A340446818
:1055300023434360D3001B189A68CB608A6099604C
:10554000D1602800FFF73CFCE0BCBA46B146A84653
:10555000F0BD5246002A0FD101224B44CF18BC4661
:10556000B468484F1A43BC425BD0F668E660B4604A
:105570004A6062461360D2E762463A434A6080223C
:10558000336092009342CED35C0A042C3FD89C092E
:10559000260039343836E40004192268083C032711
:1055A000944203D14EE09268944203D05068B843CD
:1055B0009842F8D8D468CC608A60A160D160C0E716
:1055C0005246002A35D14B441A00B068F36817439D
:1055D000C36098604F608A50B3E74B441A0043465B
:1055E000002B06D10B68C91A8C68D218CB68E3600F
:1055F0009C60012313434B60234B81601B689342E3
:105600009FD8224B28001968FFF7F2FE99E7142C67
:1056100013D9542C1DD81C0B26006F346E36E400B1
:10562000BAE7E160A1604A606246CC608C601360BA
:1056300087E71F434F60336083E726005C345B36A7
:10564000E400A9E70123B610B34046683343436042
:10565000B1E7AA225200944205D8DC0B2600783428
:105660007736E40098E70A4A944205D89C0C260055
:105670007D347C36E4008FE7FE247E26A4008BE791
:10568000B0100020B8100020AC100020C819002075
:105690005405000070B506000C1E3FD0002802D053
:1056A000436B002B47D001250C22A35E626E2A4279
:1056B00032D19B0542D521003000FFF789FBE36A18
:1056C0000500002B04D03000E1699847002828DB52
:1056D000A3891B062AD4216B002908D0230040335C
:1056E000994202D03000FFF7DDFE00232363616C96
:1056F000002904D03000FFF7D5FE00236364FFF7D4
:105700004BFD0023A381636EDB0725D5A06DFFF75A
:105710002DFEFFF749FD02E0002BCCD1002528002B
:1057200070BD0125A3896D421B06D4D530002169C7
:10573000FFF7B8FECFE7FFF713FDB4E7A06DFFF763
:1057400017FE0C22A35E002BB5D1636E2B42E5D170
:10575000A06DFFF70FFEE1E7A06DFFF70BFED5E7A9
:10576000F8B5C0460000000001B40248844601BC00
:10577000604700BF0103002001B40248844601BC19
:10578000604700BF2502002001B40248844601BCE6
:10579000604700BF5D0F002001B40248844601BC91
:1057A000604700BF410C002001B40248844601BCA0
:1057B000604700BF3D04002001B40248844601BC9C
:1057C000604700BF5D0F002001B40248844601BC61
:1057D000604700BFC100002001B40248844601BCFC
:1057E000604700BF9901002001B40248844601BC13
:1057F000604700BF190C002001B40248844601BC78
:10580000604700BF0101002001B40248844601BC8A
:10581000604700BFD10C002001B40248844601BC9F
:10582000604700BF810C0020711900109D19001005
:10583000811B00109521001001200010052100108F
:10584000A91A0010B9190010D9190010ED1900108B
:10585000C10A0010F51900108D0E00103919001042
:0C586000F5060010A52B0010B10200108E
:10587000536567756E646F20746F7175652064651C
:105880007465637461646F2064656E74726F206404
:1058900065206C612076656E74616E612C20656E8A
:1058A0007669616E646F20275227000000000000B7
:1058B00054696D656F75743A207072696D657220F8
:1058C000746F717565206E6F207365677569646F9D
:1058D00020646520736567756E646F20746F7175E1
:1058E000652C20656E7669616E646F20274C2700F9
:1058F000426F74C3B36E2064652064697370617213
:105900006F2070726573696F6E61646F00000000D4
:105910000A2A2A2A2050414E4943202A2A2A0A00CC
:105920000A0000004E6F207370696E6C6F636B73BA
:105930002061726520617661696C61626C6500004E
:105940004E6F2075736572204952517320617265E4
:1059500020617661696C61626C6500004861726407
:105960007761726520616C61726D20256420616CC5
:10597000726561647920636C61696D656400000023
:1059800048617264206173736572740052656C655E
:1059900061736500626F6F74325F773235713038D2
:1059A00030000000322E322E300000007069636F2C
:1059B000000000007370616365696E7661646572F2
:1059C000735F636F6E74726F6C6C657200000000C1
:1059D0004A756E2031352032303236005553422020
:1059E000737464696E202F207374646F7574000083
:1059F0005261737062657272792050690000000014
:105A00005069636F00000000426F6172642043447C
:105A1000430000005265736574000000556E6861B4
:105A20006E646C65642049525120307825780A00F4
:105A3000657020253032582077617320616C726563
:105A400061647920617661696C61626C6500000057
:105A500043616E277420636F6E74696E756520787C
:105A6000666572206F6E20696E6163746976652069
:105A70006570202530325800FFFFFFFFFFFFFF7FDA
:105A800006005250D3F075428C5900100600525057
:105A9000E182887F9459001006005250ABB36053E6
:105AA000A459001006005250BBFF3CB6AC59001080
:105AB00006005250861C0302B459001006005250D2
:105AC0005422A29DD059001005005250DE65F468A2
:105AD000A87200100D0A0000000000000926001046
