:020000041000EA
:1000000000B5324B212058609868022188439860DF
:10001000D860186158612E4B002199600221596106
:100020000121F02299502B49196001219960352056
:1000300000F044F80222904214D00621196600F024
:1000400034F8196E01211966002018661A6600F04E
:100050002CF8196E196E196E052000F02FF8012189
:100060000842F9D1002199601B49196000215960AB
:100070001A491B48016001219960EB211966A021F2
:10008000196600F012F800219960164914480160C1
:100090000121996001BC002800D000471248134993
:1000A000086003C880F30888084703B5996A0420EC
:1000B0000142FBD001200142F8D103BD02B5186610
:1000C0001866FFF7F2FF186E186E02BD00000240BE
:1000D000000000180000070000035F00212200005C
:1000E000F4000018222000A00001001008ED00E03C
:1000F00000000000000000000000000074B24E7A12
:1001000000200420F7010010C3010010C5010010F9
:10011000C1010010C1010010C1010010C101001097
:10012000C1010010C1010010C1010010C701001081
:10013000C1010010C1010010C9010010CB01001065
:10014000CD010010CD010010CD010010CD01001037
:10015000CD010010CD010010CD010010CD01001027
:10016000CD010010CD010010CD010010CD01001017
:10017000CD010010CD010010CD010010CD01001007
:10018000CD010010CD010010CD010010CD010010F7
:10019000CD010010CD010010CD010010CD010010E7
:1001A000CD010010CD010010CD010010CD010010D7
:1001B000CD010010CD010010CD010010CD010010C7
:1001C00000BE00BE00BE00BE00BE00BEEFF3058054
:1001D000103800BEF2EB8871185B0010385B00101D
:1001E0003402001090A31AE700201F49086006C8D7
:1001F00081F3088810471D48006800282FD10DA4FE
:100200000ECC002902D000F012F8F9E71849194A7B
:10021000002000E001C19142FCD1174988471749ED
:1002200088471749884700BEFDE701C901C29A42C5
:10023000FBD37047385B0010C0000020B0140020D2
:10024000286F00100000042000000420286F001018
:10025000001004200010042000000000704709482E
:1002600001F042FF0047000008ED00E0000000D070
:10027000B0140020C02300202D1F0010090300101F
:10028000552000105756000006005250ABB3605383
:10029000C058001006005250861C0302D0580010AF
:1002A000060052505422A29DEC58001005005250F6
:1002B000DE65F468286F0010F8B5C04606480749A7
:1002C000091A8B10C90FC91810B5491003D0044B77
:1002D000002B00D0984710BDB0140020B0140020AF
:1002E00000000000054B10B5002B03D00449054861
:1002F00000E000BFFFF7E2FF10BDC04600000000B5
:100300004423002018580010F0B5DE4657464E46EC
:100310004546E0B589B002F0F5FB102000F064F925
:10032000D024802324065B02A36200220121102036
:1003300000F048F90D2000F057F980239B01A362DB
:10034000002201210D2000F03DF9192000F04CF9A8
:1003500080239B046362A361C82405E00A20013C5A
:1003600000F06EFF002C03D002F010FE0028F5D044
:10037000C82000F065FF8A4BD0279A46894B01269A
:100380000193894B3F060393884B0793884B049353
:10039000884B0593884B0693884B0093884B9B466C
:1003A000012399464A467B681B0C13407340DAB21E
:1003B000904652461478DB0700D49DE00023744039
:1003C000E4B20293534642461A7001F089F80029BC
:1003D00000D18BE0FA220023920001F0F5FE050027
:1003E000019B1B78042B0DD8039A9B00D3589F4682
:1003F0004346002B00D188E0059B4C201B68EB1A7C
:10040000592B2CD84A467B6800245B0B1340734061
:10041000DAB2DB0703D5009B1C787440E4B2009B82
:100420001A7001F05DF8002969D0FA2200239200C9
:1004300001F0CAFE0500002C04D05B461B68EB1AD5
:10044000312B66D80A2000F0FBFEABE74346002BB9
:100450005BD0059B1B68EB1A592BD3D95220802403
:1004600002F0DCF9049BA4041B68986804F07AFD90
:1004700050207C6100F0E4FE059BBC611D60C1E77B
:10048000069B1B68EB1A002C55D0B42B72D943463F
:10049000002B56D180244C2002F0C0F9049BA40408
:1004A0001B68986804F05EFD50207C6100F0C8FE77
:1004B0000023019ABC611370A4E74346002B04D0CB
:1004C000079B1B68EB1AB32B3BD8029B002B99D0E0
:1004D000069B019A1D600223137093E7002C91D0B4
:1004E0004A46019B1A70079B1D608BE7FA21890021
:1004F00001F02CFE050073E70294002462E7FA2164
:10050000890001F023FE050095E70023019A13708E
:1005100078E78024462002F081F9049BA4041B683C
:10052000986804F01FFD50207C6100F089FE5B4656
:10053000BC611D6086E74246002A17D0B42B00D864
:1005400060E780244C2002F069F9049BA4041B6836
:10055000986804F007FD50207C6100F071FE059B57
:10056000BC611D600323019A13704BE7B42B00D8C4
:1005700048E78FE78024522002F050F9049BA4043E
:100580001B68986804F0EEFC50207C6100F058FE77
:10059000059BBC611D600423019A137032E7C046BD
:1005A000B9230020BA23002018580010281F00206B
:1005B0004C1300203423002074230020B523002096
:1005C00030230020074B80009C4660440368C9002C
:1005D00092000A435A400C231A4080235B010343D4
:1005E0001A60704704C001400123D02283401206E4
:1005F00093629361094A40219446830063441A68D8
:10060000C0004A40803111408022520113431960DA
:10061000034B9C46052360444360704704C001407F
:1006200000400140024B18688007C00F7047C04669
:1006300000C0064070B5EFF3108C72B60D4D2B68FC
:10064000002BFCD0BFF35F8F0724CB08C618C05C1B
:1006500001230C40A3401C000440034207D118436F
:100660003070BFF35F8F2C608CF3108870BD10006A
:1006700001F0F4FC2C0100D0F8B54746CE46884680
:1006800080B5EFF3108C72B61C4D2C68002CFCD09A
:10069000BFF35F8F9A4222D807210126894602E0E4
:1006A0000132934218D34D4637001540AF40D4086D
:1006B0000119045D2742F3D110003C430C70BFF3D5
:1006C0005F8F00220D4B1A608CF3108800280EDB20
:1006D000C0BCB946B046F8BD01204042EFE7BFF3C9
:1006E0005F8F00232B608CF310880120404243462B
:1006F000002BEDD0089801F0B1FCC0462C0100D0D1
:100700000021044B044ABFF35F8F02C39342FAD126
:100710007047C046000100D0800100D0044A107824
:10072000431CDBB2172B00D9102313707047C0464F
:10073000580E002010B5064B064C82B00100009305
:1007400018221F232000FFF797FF02B010BDC046FC
:100750002C580010AC1E002001238340002904D037
:10076000034A1360034A13607047034A1360FBE7B0
:1007700080E200E000E100E080E100E0012383404E
:10078000014A13607047C04600E200E0084B103099
:100790009B688000C358002B07D0064A00209B1A94
:1007A0002F229A424041C0B270470020FCE7C04669
:1007B00000ED00E05C0E0020024B10309B688000D2
:1007C000C058704700ED00E070B50D00EFF31086E3
:1007D00072B60F4A1368002BFCD0BFF35F8F0D4B2E
:1007E00010309B6884001B590B4A934203D09D42F2
:1007F00001D001F04BFC074B9B681D51BFF35F8F8D
:10080000BFF35F8F0022024B1A6086F3108870BD21
:10081000240100D000ED00E0CD010010F0B55746F6
:100820004E46DE464546E0B585B00600009117000D
:10083000EFF3108B72B66A4A1368002BFCD0BFF33B
:100840005F8F0025674B5D579A46002D00DAA9E0BF
:100850006B00654C01935B199B009846A146C1440F
:100860004B4652469B7910361370604BB6009B681E
:1008700099590B1B2F2B33D95D4B994200D0ACE01B
:10088000019B42469C465B4B6544AD0063535A4B0B
:100890000232A218043B9B1A1B05584A5B0D6519CE
:1008A00013436B80564B0121AB80FF23AB71009B40
:1008B000EF71AB604B460B4319004C4B9B68995151
:1008C000BFF35F8FBFF35F8F0022454B1A608BF33E
:1008D000108805B0F0BCBB46B246A946A046F0BDA4
:1008E00001200A008243D3798C46BB4231D8454669
:1008F000130044491B1B5B415943090D3D4B635396
:100900003D4B02356519043B5B1B1B053B4D5B0DE5
:100910002B43AA464D466B800425AC465546E04421
:10092000131F44441B1B1B055B0D1D434B46997154
:1009300000999D8099604946DF71334B01431360F4
:10094000BBE75800C01880002018C179B9422FD9E0
:1009500002000623D356002BF3DA02932B4B614699
:100960000393131D9A4604235B429C46E144504680
:100970004B461B1A1B055B0D9C46204B95719846F8
:100980006346404603439380019B5A199200039BA0
:10099000A418A380029B1C4AA371009B2260E771EC
:1009A000A3608AE701F072FB002553465D574FE7CD
:1009B000908802934005131D9A46031561469C4694
:1009C0004046D444634604302018181AE02300053A
:1009D000400D1B0218430390C5E701F057FB4FE79A
:1009E000240100D0B62300205C0E002000ED00E0C2
:1009F000CD01001000A1FFFF8C0E002000E0FFFFE2
:100A000001BDFFFFAAAA00000148804701BD000008
:100A1000F8B5DE4657464E4645460C00E0B5EFF3C6
:100A2000108872B65B4A1368002BFCD0BFF35F8F4F
:100A3000594B5A499A68030010339F00D5599C4678
:100A40008D4238D0A54248D0554EAA1B2F2A32D805
:100A500001221300834099465248006803409A4699
:100A60004B4651480360BFF35F8FEFF305839B460E
:100A7000002B34D09C4501D001F008FB01232A0053
:100A80009A439068844208D172E04B005B189B0047
:100A9000F3189868A04232D01A0006215156002956
:100AA000F3DA844250D05346002B24D04A463F4BC1
:100AB0001A603C4B1A60384B9B68DD51BFF35F8F67
:100AC000BFF35F8F0022334B1A6088F31088F0BCAD
:100AD000BB46B246A946A046F8BD0D00EBE72B0089
:100AE000934398681A008442D7D1062018560028EC
:100AF00009DA0D0030E04A462B4B1A60DBE706208E
:100B00001856002821DB42001118890074188B4602
:100B1000A1689960E179D97106216156997100291E
:100B200024DBA488F11A640524155C44091909051D
:100B30001F4C490D2143998013181E4A9B001178C0
:100B4000F31899711070AEE713005946002914D1BB
:100B5000FF3191711849918016490A789A71174AA4
:100B60009B1B5B415A43120D0A709CE71249E2E756
:100B70000620105613000028C5DA114A1149D21A6E
:100B8000083A5002400D014399800F4952080A4328
:100B9000DA8088E7240100D000ED00E0CD010010EC
:100BA0005C0E002000E100E080E100E080E200E077
:100BB00000E0FFFFB623002001BDFFFFAAAA00004E
:100BC000960E002000F0FFFF00F8FFFF70B5EFF376
:100BD000058101240443EFF3108C72B6214A136897
:100BE000002BFCD0BFF35F8F1F4B05001F4AED1A8F
:100BF0006D416A43120D1E4D8900AE6852B276589F
:100C0000A6421CD00621595691421CD01221595699
:100C1000914222D01E215956914220D02A21595664
:100C20000324914210D0134B19781A708171BFF3CD
:100C30005F8F00220B4B1A608CF3108870BDAB687D
:100C40000D4C5C50EFE700246100091989005B1826
:100C5000FF21997109499980E5E70124F4E702240D
:100C6000F2E7C046240100D05C0E0020AAAA0000D2
:100C700000ED00E0B6230020CD01001001BDFFFF14
:100C8000054B064A1360064A136053609360D360B5
:100C900013615361936170478080808000E400E0BD
:100CA00004E400E010B5084B084C82B0010000934A
:100CB000002205232000FFF7DFFC002801DB1F23B3
:100CC000181A02B010BDC04648580010BD230020BD
:100CD000024B9C466144890001607047400000342B
:100CE00010B50400FFF71AFD01002000FFF7F0FF28
:100CF000FF232371BFF35F8F10BDC04610B5040002
:100D0000FFF70CFD01002000FFF7E2FFFF23A380A7
:100D1000BFF35F8F10BDC04610B504000120FFF780
:100D200009FD034BC3189B002360BFF35F8F10BD09
:100D300040000034034B9C46614489000160BFF3CE
:100D40005F8F70474000003483680B4810B58446BD
:100D5000614462441201090159189B185C684A6891
:100D60000120944201D802D00020C0B210BD1A6800
:100D70000B689A42F9D8F7E7FFFFFF0F0A4B196893
:100D8000EFF3108072B60A68002AFCD0BFF35F8FC1
:100D90001B68BFF35F8F00221A6080F3108840BF8A
:100DA000002000217047C04684230020F8B5574634
:100DB0004E464546DE46E0B598460CAB1C780DAB7A
:100DC0001B78070091469A460668002C57D1B47BE1
:100DD000002C3AD0650031682D19033D49194B7834
:100DE000B373002B00D1F37300238B704B700B7027
:100DF0002D4BE218BB6812019B184A461A60424606
:100E00005A600A9A9A600B9ADA6000238B704B70D2
:100E10000B70737B9B46002B24D0220073685946CD
:100E2000B06898475B465B0032685B44033B5519EA
:100E3000D21800280FD05B46AB701378002B24D15A
:100E40005B46147073735C450DD0F0BCBB46B24674
:100E5000A946A046F8BD94702B78002B00D05370A3
:100E60005B462B7074734A464346387D00F0CCFBDA
:100E7000051E11D10E9B002BE7D01D70E5E7650024
:100E800031682D19033D4919B2E76B705B46147048
:100E900073735C45D9D1E6E75346002BEAD12100B4
:100EA000386800F0E7FDE5E7FFFFFF0F664B8200C3
:100EB000F0B5D4580023DE4657464E4645469B467D
:100EC000E0B58DB0099000F00BFB626806000F00E2
:100ED000EFF3108872B61368002BFCD0BFF35F8F5E
:100EE00023689C465B7B9946002B0DD16368BFF35A
:100EF0005F8F4A461A6088F310880DB0F0BCBB467D
:100F0000B246A946A046F0BD504BA5684B441B0114
:100F1000ED182868696802000B00921BBB41002B8A
:100F20000EDD02000B00099800F06EFB6368BFF352
:100F30005F8F5A461A6088F310880028C3D1DCE717
:100F4000002B01D1002AECD10021604600F0FEFC0C
:100F5000AB680200286869689A46EB680A900B91B2
:100F600008934B465D1EE368585D636800020243C8
:100F70002261BFF35F8F5A461A6088F31088534688
:100F8000002BBAD04B4608991843D04762680690A8
:100F90000791EFF3108872B61368002BFCD0BFF3F3
:100FA0005F8F079B002B27DB069A079B11001943D5
:100FB00002D02369002B3BD12368D97B002906D0BE
:100FC0001A684800411852184946033A51709A7BF2
:100FD000002A01D14A469A734A46DA73E268535DA1
:100FE000013353555B4623616368BFF35F8F5A46F5
:100FF0001A6088F3108866E72369002BDCD00A9A10
:101000000B9B06980799121A8B41002B02DA0122DA
:101010000F4B524200210491013103914946029144
:1010200008992000019151460091FFF7BFFED9E7D2
:1010300000F056FA069A079B12184B41002BE9DA8A
:101040000122034B5242E5E764230020FFFFFF0F1C
:10105000FFFFFF7F10B5144C6368002B04D00A21FA
:101060001248FFF735FE10BD2300114A10212068F9
:1010700000F078FB032000F027FA032000F02CFB9F
:1010800003200C4900F07AFAFFF748FB0A4B9C4614
:1010900003232375D0231B061B6860446375074B2D
:1010A00080006060DC60DAE7A40E0020842300206A
:1010B000490D0010AD0E00104000003464230020E4
:1010C00000487047A40E0020F0B54E465746DE4655
:1010D0004546E0B587B0019312AB1B780600059337
:1010E00000239A46994600927268EFF3108B72B60D
:1010F0001368002BFCD0BFF35F8F3568AC7B002CEE
:1011000000D170E067002B683F19033FDB195A7864
:10111000AA73002A00D1EA73464AA118B2680901ED
:1011200052180098019910605160109991601199BE
:10113000D1604A469A705A701A706B7B9846002BA1
:1011400061D022006B684146A868984743465B001F
:101150002A684344033BD719D21800284CD0434691
:10116000BB701378002B00D07B70434614706B73F8
:10117000444549D0F3681B19013B18787368BFF3E5
:101180005F8F4A461A608BF310885346002B08D1B4
:101190000002204307B0F0BCBB46B246A946A046B9
:1011A000F0BD059B002B43D0109B00201199984760
:1011B00003000B433CD002900391002931DA009BDD
:1011C000019C0299039A5B1A944180220093019436
:1011D0001206944204D30123174C5B4200930194FE
:1011E000059B9A4680E77368BFF35F8F1C608BF3A3
:1011F000108801204042CDE794703B78002B00D04E
:10120000537043463B706C73307D009A019B00F035
:10121000FBF982460028ADD02100306800F02AFC9E
:10122000A8E700F05DF9029B039C1B184C41CCE73A
:101230000020AFE7FFFFFF0FFFFFFF7F407D7047FC
:10124000F0B5C64600B584B0040000F049F9FA22B2
:1012500006000F00200000230021920001F010FA88
:101260008019794104000D1E02DA01242A4D6442DE
:1012700006267642F71736196F41AF4214D811D0BF
:1012800000F02EF932003B00121A8B41002B15DCC6
:10129000002B3ED02000290000F060F904B080BC93
:1012A000B846F0BDA642EBD90026002700F018F999
:1012B00032003B00121A8B41002BE9DD0023029320
:1012C0000193164B3200009315483B00FFF7FCFEDC
:1012D0000130DFD0002339009846124A1248536A81
:1012E000994204D8976ABE42D4D99942D2D10768AC
:1012F000EFF3108C72B63B68002BFCD0BFF35F8F0E
:101300000368BFF35F8F47461F608CF3108820BFD0
:10131000E5E7002ABED0D1E7FFFFFF7F7D0D00107B
:10132000A40E00200040054084230020F0B5EFF318
:101330000583C64600B505000C0084B0002B0FD015
:101340002F4A0020536AA34206D3926A1B1B591EE0
:101350008B41AA424041184304B080BCB846F0BD5E
:10136000284E02930193284B0200009330000B009B
:10137000FFF7AAFE00280CDC214A0020536AA34292
:10138000EAD3926A1B1BAA4240415A1E934118435A
:10139000E2E720BF7268EFF3108772B61368002B84
:1013A000FCD0BFF35F8FC3B29846FF223368024080
:1013B0009C465B7B43450DD0634651001B688918F2
:1013C0005B18033B9B78002B04D13269904209D112
:1013D000336107E0F168030A8A18013A1278DBB238
:1013E0009A4207D07368BFF35F8F00221A6087F3B9
:1013F0001088A5E74146604600F03CFBF2E7C04696
:1014000000400540A40E00207D0D0010F0B5EFF364
:101410000582D6464F4646461000C0B51038EFF359
:10142000108872B6214C2368002BFCD0BFF35F8F6D
:101430000123190081401E4D1F006963AA461D4DFE
:1014400029601D4D2E78AC463500C5402F402B42FB
:1014500015D053465F6A194B8500EB589F4218D34D
:101460006246174B8E43EB581670BFF35F8F002216
:10147000226088F31088002B06D0984704E0BFF361
:101480005F8F276088F31088E0BCBA46B146A84653
:10149000F0BD0C4B92009C46624413681360BFF38E
:1014A0005F8F0023236088F31088EDE7280100D0C8
:1014B000004005403C700540BC23002090230020E4
:1014C000941D0020D03F054010B5034B01001800CB
:1014D000024AFFF7AFF810BDB42300206458001093
:1014E000034B596A0A00986A596A8A42FAD17047CE
:1014F0000040054070B504000D00174A536A1900FA
:10150000966A536A8B42FAD13000190024184D4173
:10151000AB4216D813D0104B2A005B6A9D4203D908
:101520000D494B6A9342FCD3934207D10A4A02E029
:10153000516A994202D1916AA142F9D370BDA64283
:10154000E9D9054B5B6A1C005A1CEFD0012201242B
:101550006442E5175242E3E700400540064A536AF9
:101560009942FCD807D1044B02E05A6A914202D159
:101570009A6A8242F9D370470040054070B5040072
:101580000D00EFF3108672B61A4A1368002BFCD0D8
:10159000BFF35F8F002D1BD02000FFF70DF9164918
:1015A00081420AD02000FFF70FF901212000FFF748
:1015B000D3F80123A340114A1360114BA400E55056
:1015C000BFF35F8F00220B4B1A6086F3108870BD4B
:1015D0000121A1400A4BA200D5500A4B20001A78E5
:1015E0008A4305491A70FFF713FA00212000FFF71C
:1015F000B3F8E5E7280100D00D140010386005406D
:10160000941D0020BC230020F0B54F46D646464628
:10161000C0B507002B4C616A0D00A66A616AA94239
:10162000FAD18B4208D805D00120E0BCBA46B146B9
:10163000A846F0BDB242F7D9EFF3108A72B622483D
:1016400001680029FCD0BFF35F8F0125BD401F4911
:101650001C4C8846097889462943C9B28C464146C4
:1016600060460870391D890065630A511849B80041
:101670004350216A0020294219D0616A0800A66AF5
:10168000616A8142FAD18B4219D801D1B24216D88F
:10169000CC450BD00B4B1F221D625D6301233A40EA
:1016A00093400C4A136043464A461A700120BFF328
:1016B0005F8F0022044B1A608AF31088B5E7002080
:1016C000F5E7C04600400540280100D0BC230020BB
:1016D0009023002080E200E0EFF3108C72B60A49FC
:1016E0000B68002BFCD0BFF35F8F01238340074AB8
:1016F0000748136202789A430270BFF35F8F00239A
:101700000B608CF310887047280100D00040054022
:10171000BC23002070B506000D00140000291CD069
:10172000002A12D073688068984763006A003168A5
:101730001B195219033B033ACB188918002806D00D
:101740009D700A78002A0AD10C70280070BD8C7038
:101750001A78002A00D04A701D702000F6E75A70EF
:101760000C70F2E710B583600023CCB243730133F1
:10177000426004738373C4730068421C012C05D952
:101780000133DBB2137003329C42F9D1FF230B40CB
:101790005A00D318C01800230338437010BDC04648
:1017A000F8B5CE46474605000C0080B5002907D0A5
:1017B0004E0003687618033E9A195778002F04D11B
:1017C0002000C0BCB946B046F8BD7900C91903393C
:1017D00088464344597889460021597051706B6896
:1017E0003A0021008068984743462A68D318921926
:1017F000002811D09C701178002900D05970177002
:10180000270049462800FFF7CBFF390002002800D7
:10181000FFF780FF0400D3E797701978002900D004
:1018200051701C70EDE7C046F8B557464E46454628
:10183000DE464C00E0B5641817000268033C050062
:10184000105D13190E009C46002854D043009846A2
:101850001B18033BD31859788A46002920D1002F42
:1018600013D0EC7B002C51D063001B19D318033B21
:101870005E70AB7B002B3CD0EE73002807D043009A
:101880009846434619180339531800229A700023CA
:1018900062465370F0BCBB46B246A946A046F8BDAE
:1018A000490051440339521851788846002151703B
:1018B00089465970524601002800FFF72BFF434626
:1018C0008246002B07D05B0029684344033BCB18BA
:1018D0005A78002A1FD1424651462800FFF71AFFC6
:1018E000A4462A689444002FC7D0EC7B002CC0D0BB
:1018F000BAE7AE73C0E7002FC9D0EC7B002CB3D1A0
:10190000AB7B002B20D1A973E973C0E7AB7B002B25
:10191000EFD0EE73B5E75000801803380918487807
:10192000834648464870587041462800FFF7F2FE4B
:10193000594680462800FFF733FF41460200280041
:10194000FFF7E8FE8046C6E7E973A0E7F8B557461B
:101950004E464546DE46E0B5467B02687500AD1949
:10196000033D0F00515D531904009C46002956D0D9
:101970004B0098465B18033BD318587882460028E2
:1019800022D1002F13D0E57B002D53D06B005B19C3
:10199000D318033B5E70A37B002B3ED0E673002977
:1019A00007D04B00984643465818033813180022B6
:1019B0009A7000236246300053706173F0BCBB46DE
:1019C000B246A946A046F8BD40005044033812185C
:1019D0005078804600205070814658705246200052
:1019E000FFF798FE43468246002B07D05B00216834
:1019F0004344033BCB185A78002A20D14246514633
:101A00002000FFF787FEAC46226801009444002FB7
:101A1000C5D0E57B002DBED0B8E7A673BEE7002F8A
:101A2000C7D0C57B002DB1D1837B002B20D186731D
:101A3000C673BEE7A37B002BEFD0E673B3E750007D
:101A4000801803380918487883464846487058700B
:101A500041462000FFF75EFE594680462000FFF712
:101A60009FFE414602002000FFF754FE8046C5E776
:101A7000C6739EE770B5040000292CD0437B8B42CF
:101A80002ED0056848004018033828188278002AAC
:101A900021D053009B18033BEA5CEE188A4202D126
:101AA0001BE0002A08D053009B18033BEB185A7820
:101AB0008A42F6D142785A70002301228370437023
:101AC0002000FFF7B1FE617B02002000FFF722FE3D
:101AD0006073012000E0002070BD43783370EBE7B5
:101AE00001221900FFF7A0FEF2E7C04610B50C2056
:101AF00082B000F0B1F9FEF795FD002810D08B4BB5
:101B00008B488B498B4A186059609860D96018617E
:101B100059619861D961186259625A6202B010BD68
:101B2000854CA06700F0EEF90122844B1A60636CCB
:101B3000012BFCD10322824B1A607F4A936B012B4D
:101B4000FCD1013301217F4A7F480093043300F028
:101B500031F905237D4A009301217D4800F02AF9DF
:101B60007C4B5A68FF2A02D8802252005A60802299
:101B7000734B6E4C12011A602169002907D060690D
:101B800000F0E4FA013043001B18033BFDD2E023D0
:101B9000704A714811680B40036002231168594074
:101BA00001330B400421036093681942FCD080216B
:101BB0006A4B090119608021694B4900516023611A
:101BC000684B5A68FF2A00D85960032201215B4BF9
:101BD0001A60644A93681942FCD0E02310680340FD
:101BE00061480360126803234A40022113405D4AA2
:101BF000036093681942FCD080215C4B0901196095
:101C000080215B4B4900516063615A4B5A68FF2A3F
:101C100000D859608022584B12011A60E1690029EE
:101C200007D0606900F092FA013043001B18033BB3
:101C3000FDD2E0234F4A11680B4050490B608021D0
:101C40004F4B090119608021394B49005160E36114
:101C50004C4B5A68FF2A00D8596080224A4B120127
:101C60001A60216A002907D0606900F06FFA01301C
:101C700043001B18033BFDD2E023424A11680B408E
:101C800042490B608021424B0901196080235B00AF
:101C900053608022264BD20223623E4B5968914208
:101CA00000D25A6080223C4B12011A60616A0029FE
:101CB00007D0606900F04AFA013043001B18033B6B
:101CC000FDD2E023334A11680B4034490B60802178
:101CD000334B090119608023DB025360154B6362AB
:101CE000304B5A68FF2A02D8802252005A60802264
:101CF0002D4B12011A60A169002907D0606900F01C
:101D000025FA013043001B18033BFDD2E023254A8E
:101D100011680B4025490B608021254B0901196092
:101D200080235B005360124BA361F7E6B0140020E0
:101D3000006CDC021BB70000008000403CB000409B
:101D400030B00040002F685900800240008C864768
:101D500000C00240308000403090004030A0004081
:101D6000001BB7003C8000403C9000403CA000407D
:101D7000405973075480004054B0004054900040D4
:101D800054A000406080004060B00040609000407F
:101D900060A000406C8000406CB000406C9000403F
:101DA0006CA000404880004048B00040489000408F
:101DB00048A00040F8B5040022481E0017000D009E
:101DC00000F0C4F90100380000F0C0F9069B3604A9
:101DD0001B031E432368002B22DB1B4B1B49E3180C
:101DE0005A1E93418022920194465B421B0B184A73
:101DF0001B0363441360174A13601F008A689743EC
:101E0000FBD1C022231D92011A4321232560A0602B
:101E100013602368002BFCDA0823E6601360F8BD2A
:101E20003F2322681340AB42D7D1A3681B051B0D8B
:101E30008342D2D1EE22E368D2021340B342CCD126
:101E4000EDE7C046001BB7000040FDBF00C00040EA
:101E500000E0004000F000408023024A9B00034362
:101E6000D36270470080054010B580241C4BE40508
:101E70001C6000281AD001231A4C18431A4BDC614D
:101E80001A4C44401C62596298628021144BC90567
:101E90001960174817490860E021C9041960002A31
:101EA00007D18022144B12061A6010BD0E4BD86168
:101EB000EBE753019B1A9B009A18802312015B04E5
:101EC0009A4209D213000D490B60074B5A608022D9
:101ED000094BD2051A60E8E7094B1A00F3E7C04640
:101EE00000B00540D3C007B0008005402D3FF84F3B
:101EF000FCFF01000820014000A005403C23002019
:101F0000FFFFFF00AA23064A1B0113602F23054988
:101F1000D360054B19605368002BFCDA7047C0464C
:101F20000040024000B0FA00006002402C4B2D4AF5
:101F300070B51A602C4A2D4B2D491A6014008B681D
:101F40009C43FBD12B4D2C4EB54208D2013E761B53
:101F5000B60808CD984723000134B342F9D1FFF702
:101F6000C5FD264A214B1A60214A9368DB43DB01F9
:101F7000DD09002BF9D14022214B224C224E9A67D9
:101F80005A671A67DA66B44208D223682000002B29
:101F900020D00834FEF7B2FEB442F6D31B4C1C4EE0
:101FA000C022B168200000F0DBFBB460FEF7A8FBA4
:101FB000FEF766FEFFF74EF8164C174EB44208D2F5
:101FC000013E361BB60808CC98472B0001359E42CF
:101FD000F9D170BD0834FEF783FEB442D5D3DDE7F6
:101FE00000E00040BFCDFBFEFE7F3C0000F0004063
:101FF00000C0004098140020A8140020FFFFFF013B
:1020000000F00140901400209814002000000020EF
:1020100000ED00E0A8140020B014002000BEFDE791
:10202000094A03001068002805D00849C3188B42EC
:1020300007D81360704706480449C31810608B42E4
:10204000F7D901204042F5E72C1F002000000420B2
:10205000C023002010B5FFF7E1FFC0460FB400B564
:10206000084883B000F024FC049B002B07D005A98E
:102070001800019100F018F8034800F019FC012045
:10208000FFF7CCFF885800109858001010B5014891
:10209000FFF7E4FF9C58001010B5002800D110BDD8
:1020A00000F0BCFBFBE7C04610B5094A030014680A
:1020B00084B0002C08D0012200910648524203A9A6
:1020C000A047012004B010BD00F0F2FB0020F9E7AA
:1020D000382300209920001001480421014B1847A3
:1020E000D00E002009210010002310B50100988AAD
:1020F0001B8B984710BDC046162310B501001888E9
:1021000002331B88984710BDF8B54746CE4680B5C8
:102110000F1E18D01423994604330400002501260D
:1021200098464B461888434621681B88984701C447
:10213000431E984101350640AF42F2D13000C0BC89
:10214000B946B046F8BD0126F8E7C046114A936F7C
:102150009B0813D210665166002905D0FFE7FFE700
:10216000FFE7516F106F704704B5002801D00020C1
:10217000C04303F011FB002104BDC046F0B5146E4E
:10218000556E576F166FFFF7E5FF14665566576774
:102190001667F0BD000000D094464A4A926F92083C
:1021A000624601D228E0C046F0B5464E346E756EE8
:1021B000776F366F00F020F89446424A14665566F1
:1021C000576716676246F0BD94463E4A926F920882
:1021D000624601D254E0C046F0B53A4E346E756E98
:1021E000776F366F00F04CF89446364A14665566A1
:1021F000576716676246F0BD002B24DB11D000291B
:102200003EDA00B5C943404200D1013100F038F850
:10221000C943404200D10131DB43524200D1013376
:1022200000BD002AEBD1002801D1002905D00020F3
:10223000C90FC90701D1C043410800B503F0A4FA92
:102240000022002300BD00B500290ADBDB43524217
:1022500000D1013300F014F8C943404200D10131EC
:1022600000BDC943404200D10131DB43524200D19D
:10227000013300F005F8DB43524200D1013300BDC9
:10228000002923D1002B18D1002A0CD0BC460D4FB9
:1022900038667A6600210023FFE7FFE7FFE77A6FE1
:1022A000386F67467047002801D00748010000B525
:1022B00003F06AFA0022002300BD02000B00002098
:1022C00000217047000000D0FFFFFFFF002B00D06F
:1022D000BFE0130C28D1002AE7D080B4114F396633
:1022E0007A66FFE7FFE730B4040C7B6F396F1B049D
:1022F00023433B667A66FFE7FFE7FFE7C04684B209
:102300007B6F3D6F1B0423433B667A66FFE7FFE765
:10231000C04600232C042D0C7A6F386F00196941D8
:10232000B0BC7047000000D0F0B594460025140EF4
:1023300001D112020835140F01D112010435940F96
:1023400001D192000235D40F01D152000135D40BD6
:102350000134254F7C66254C3C660E0C93B2FFE79A
:10236000FFE7FFE73C6F6643360C7703BE467343D7
:10237000DF0B5B04C01AB941130C7343DB18C91A95
:10238000CE086643360CB64493B273431F0F1B014D
:10239000C01AB941130C73431F0B1B05C01AB94176
:1023A000860D8F023E436643360C092D24DB520A0C
:1023B0007243801A7703460A6643360C16235B1B6A
:1023C000DE40DF40BF1964466643821B7046043519
:1023D00006330100D940A840C01900D30131A24200
:1023E00006D20023F0BD0000000000D0FFFFFFFF79
:1023F000121B0130F3D3F1E709277F1BFE4064462F
:10240000A2B27243801A00D20139220C7243130C1B
:102410001204821A99410B007046043513370100EB
:10242000F940A840801900D30131002B02D1A2420B
:102430000AD2F0BD013000D30131121BFAD2013BA8
:10244000F8D1A24200D2F0BD013000D30131121BFD
:10245000F7E7F0B51C0C00D080E00CB400251C0A96
:1024600004D11B02160E3343120208351C0B04D193
:102470001B01160F3343120104359C0B04D19B0042
:10248000960F334392000235DC0B02D192185B4168
:1024900001351C00971864410134464F7C66464C58
:1024A0003C660E0CFFE7FFE7FFE7C0463C6F664364
:1024B000360C7703BE4697B27743C01B00D2013972
:1024C000C01B00D201399FB27743C91BC91B170C2F
:1024D00077437E04FF0B801BB941CE086643360C60
:1024E0000C2D33DBB644120B1F053A431B0B97B27E
:1024F0007743C01B00D201399FB27743C91B170C29
:1025000077433E043F0C801BB941860D8F023E434A
:10251000664329277F1BFE400C3D7746AF40BF191D
:1025200030BCA2B2ABB272437343801A9941220C01
:102530007243130C1204801A994102000B000137F8
:10254000001BA941F9D2781E0021F0BD0C277F1B8A
:10255000FE4077467F0BAF40FF19E0E700245D1C8B
:1025600007D0144F7D663966FFE7FFE7FFE7FFE717
:102570003C6F95B29EB265436643401BB141150C5A
:102580001E0C6543664336042F0C3E432D04401B4E
:10259000B141994204D202000B0020000021F0BD9D
:1025A00001D19042F7D3801A994101349942F2D374
:1025B000F6E70000000000D0FFFFFFFF132370B517
:1025C0001D78012D15D010DD1D48FFF795FD1D4C20
:1025D00001008022200000F0C3F8022D2DD01A48FF
:1025E000FFF782FD194B186070BD194B154CA364A1
:1025F000F5E7174B134C23606360A360E36023612E
:102600006361A361E36123626362A362E3622363A4
:102610006363A363E36323646364A364E364236584
:102620006365A365E36523666366A366E366236764
:102630006367A367E367A364D1E7054BA364CEE7B1
:1026400053440000E01500204C330000802300209C
:102650005526001007B5604601880A0A0230DF2AB5
:10266000FAD1C9B2820804D302884088000410431A
:1026700000E00068014A5050039007BDE0150020BB
:1026800051434343C9188C46110C83B24B4310B4D9
:10269000040C614392B280B2504362431C041B0C91
:1026A000001910BC59411304120CC0185141614467
:1026B00070470000132310B512481C78FFF71CFD6B
:1026C0000100012C0AD003DD80220F4800F048F8F9
:1026D0000E48FFF709FD0E4B186010BD0A4C54223E
:1026E000200000F03DF80B4B6365A365E3652366AE
:1026F0006366A366E36623676367A367E367236292
:10270000E361E5E753460000E01600204C3300008B
:10271000802300201927001007B5604601880A0AA7
:102720000230DF2AFAD1C9B2820804D30288408875
:102730000004104300E00068014A5050039007BDB8
:10274000E016002001480421014B1847E00E00204C
:1027500009210010014B1B6818470000E00E002003
:10276000014B5B6818470000E00E0020F0B5C6463C
:1027700000B5437D07000C001600002B46D0002A50
:1027800017DD0B780A2B24D000239846012E13D096
:1027900001252900635C01350A2B26D0B542F8D10A
:1027A000464509DCA419013C23780D3B5A425341AC
:1027B0003B7580BCB846F0BD4346E018A419F11A39
:1027C000013C3B68984723780D3B5A4253413B7587
:1027D000EFE7037D002BD7D102210F483B689847D4
:1027E000012EDFD001239846D2E7631E5B5C0D2BE0
:1027F000D4D0884504DA4346C91AE0183B689847A4
:10280000022105483B68A8469847C7E703681100BE
:1028100020009847CDE7C046CC590010F0B5CE4611
:10282000474680B583B06B460600DD1D2870FEF775
:1028300057FE0023194A12184B41002B02DA0122DD
:10284000174B524217490800884602F0C5FF164B45
:1028500081461C68002C14D0144F02E02469002C1F
:102860000FD02368002BF9D03B68002B01D09C428D
:10287000F4D1200001222900FFF778FF2469002C01
:10288000EFD14B46002B05D1300003B0C0BCB94698
:10289000B046F0BD404602F06FFFF5E740420F0042
:1028A000FFFFFF7F90140020181F0020241F00202E
:1028B000F0B5DE464E4645465746E0B583B00600C5
:1028C00002F060FD0500FEF70BFE0023284A1218F7
:1028D0004B41002B02DA0122264B524226490800C6
:1028E0008B4602F079FF254B81461C689A46002CE6
:1028F00038D00A23224F984602E02469002C17D0D2
:102900002368002BF9D03B68002B01D09C42F4D106
:1029100020002A003100FFF729FF6B4642462000C5
:10292000DA71D91D0122FFF721FF2469002CE7D1BC
:102930004B46002B18D153461C68002C06D0636808
:10294000002B0BD098472469002CF8D1280003B045
:10295000F0BCBB46B246A946A046F0BD2469002C97
:10296000EDD1F3E70028F1D0584602F005FFE2E789
:1029700040420F00FFFFFF7F90140020181F00202F
:10298000241F0020F8B557464E46DE464546E0B5C2
:102990000E00170000282CD11B4B1C4D1A685B68D9
:1029A00093469A461A4B99461A4B98464B461C68D2
:1029B000002C03D115E02469002C12D02B68002BC9
:1029C00001D0A342F7D1A368002BF4D03900300026
:1029D00098470028EFDDF0BCBB46B246A946A046AA
:1029E000F8BD43465B6A9A4508D84246926A5A4502
:1029F00002D301204042EEE79A45FAD1012000219E
:102A0000FEF778FDD2E7C046A0590010241F002031
:102A1000181F002000400540F0B54646D6464F46F8
:102A20000138C0B515000E0001283ED8FEF758FD4C
:102A300000231F4A12184B41002B2EDB1D49A846CC
:102A400008008A4602F0C8FE81466B1C03D13000A4
:102A500002F098FC8046184B1C68002C14D0174FCD
:102A600002E02469002C0FD02368002BF9D03B68CA
:102A7000002B01D0A342F4D1200042463100FFF7E1
:102A800075FE2469002CEFD14B46002B09D128009C
:102A9000E0BCBA46B146A846F0BD0122084B5242FE
:102AA000CCE7504602F068FEF1E701204042EFE734
:102AB00040420F0090140020181F0020241F002007
:102AC000FFFFFF7F012040427047C0460120404287
:102AD0007047C0460A4A1368002B05D10CE01A0063
:102AE0001B691032002B07D08342F8D1002902D194
:102AF00018691060196170470029FCD01060FAE76E
:102B0000181F002010B500F0D3F910BD7047C04663
:102B10000022014B1A707047B72300204B79002028
:102B2000FF2B0BD18B79002B08D1CB79012B05D151
:102B3000082A03D9024B8A7809301A707047C046B8
:102B4000B72300200120704770B5012913D1144923
:102B50005379107909781B0203430020994200D071
:102B600070BD5378012B08D0022BF9D164220021CB
:102B70000020FFF779F90120F2E79478D278050078
:102B800012021443D20502D5620A93401D00054883
:102B9000FFF7AAFA7F210300214028009847C0468A
:102BA000B7230020554200000123037000487047FE
:102BB000D05900104B780A781B0213438A7810B55D
:102BC00012041A43CB781B0613439622D200934279
:102BD00000D010BD0348FFF787FA0021030008006A
:102BE0009847C04655420000024B1860024B1960DE
:102BF0007047C046A41E0020A81E002010B5024B3E
:102C00001878FDF7BBFD10BDB8230020114B70B53F
:102C10001A68002A1AD0EFF3108172B610680028E3
:102C2000FCD0BFF35F8F00200B4A596010701B6807
:102C3000BFF35F8F186081F3108800240025074BD5
:102C40001878FDF79BFD2900200070BDFA240025AF
:102C5000A400F4E75C230020BB230020B82300205D
:102C600070B5040000200E0001F0E4FA002834D012
:102C7000002001F0F7FA00282FD0FEF731FC0023E6
:102C8000174A12184B41002B16DB164D280002F094
:102C9000A3FD002821D0002001F0CCFA00280FD19C
:102CA00001200021404200F0C1FC032464422800BE
:102CB00002F062FD200070BD01220B4B5242E4E79E
:102CC000002001F0CFFA0028EAD0210032000020D5
:102CD00001F0D4FA041EEAD1E7E703246442E9E7ED
:102CE00040420F0088230020FFFFFF7FF8B5DE463B
:102CF000574680B505000C00FEF7F2FB0023364A6C
:102D000012184B41002B02DA0122344B5242344953
:102D100008008A4602F060FD002803D1C0BCBB4613
:102D2000B246F8BD002001F085FA00284AD00026FE
:102D3000002C43DD2B4B9B4614E0A919002001F029
:102D40000FFB070001200021404200F06FFC002033
:102D500001F0CAFAFEF7C4FB224BF619186059605D
:102D6000B4422BDD002001F015FBA71B0200B84286
:102D700000DD3A00002AE0D101200021404200F0AD
:102D800055FC002001F0B0FA002001F053FA0028B1
:102D900014D0002001F0FEFA0028E1D1FEF7A0FBDC
:102DA0005B460F001A685B68002184460E481218C3
:102DB0004B419F4202D8D3D19445D1D9504602F01D
:102DC000DBFCABE700200021064B18605960504641
:102DD00002F0D2FCA2E7C04640420F00FFFFFF7F97
:102DE00088230020D815002020A1070010B5234C0F
:102DF00084B00021200002F0D7FC00281CD1204B19
:102E00001A68002A16D0EFF3108172B610680028F5
:102E1000FCD0BFF35F8F01241A48596002781B6809
:102E2000D2B20470BFF35F8F0020186081F3108866
:102E3000002A0AD004B010BD01200021404200F059
:102E4000F5FB200002F098FCF4E7FEF739F90400E6
:102E5000FEF746FBFA220023920012184B41002B8A
:102E600002DA0122084B5242012102910021019114
:102E7000064920000091FEF727F9DBE788230020B0
:102E80005C230020BB230020FFFFFF7F0D2C0010E0
:102E9000054B10B51868002804D0044B00221968AF
:102EA00001F03AF810BDC046A41E0020A81E002064
:102EB000D02310B51B0684B01C68FEF701F9FEF79D
:102EC000BDF9A04202D0002004B010BD264B1B78F3
:102ED00001F042FC2548FDF703FF0120FDF7E2FE6B
:102EE000FF23234C234920701840FDF76DFC207808
:102EF0000121FDF731FC0520FDF748FC002825D114
:102F0000FEF7DEF80400FEF7EBFAFA220023920047
:102F100012184B41002B02DA0122174B52420121B9
:102F2000029100210191154920000091FEF7CCF893
:102F30000822040000211248FFF70CFC002CC2DB21
:102F400010480121FFF7C6FD0120BDE700220E4910
:102F50000520FDF763FCFDF7E1FB094B01001800BC
:102F6000FDF7E8FEECE7C046345B00108823002044
:102F7000B8230020ED2D0010FFFFFF7F0D2C001067
:102F80005C230020F00E0020FD2B001010B5002067
:102F900001F050F910BDC04600487047605A00105B
:102FA000004870470C5A001010B504001748037809
:102FB000002B20D0002C06D1154B16484380063B31
:102FC000FF3B038010BD052C1DD8134BA400E05817
:102FD00012490123013804E001330A800231142B25
:102FE0000DD0C25C002AF7D1C022DBB25B00920098
:102FF00008481343E5E7112100F01AF8DAE7CA237D
:1030000004489B00DDE70020DCE7C046A023002049
:1030100009040000F01E0020F4590010F21E0020E8
:1030200010B5024800F0D8F810BDC0467823002043
:1030300030B54B1E012900D1A7E0664A11780D0971
:103040002C0030349F2900D9A2E00470012B00D15C
:10305000BEE00F21147821400C003034092900D93A
:1030600098E04470022B00D1B2E054782509290081
:1030700030319F2C00D990E08170032B00D1A7E064
:103080000F2121400C003034092900D987E0C47099
:10309000042B00D19CE094782509290030319F2C25
:1030A00000D97FE00171052B00D191E00F21214073
:1030B0000C003034092900D976E04471062B00D188
:1030C00086E0D4782509290030319F2C00D96EE0A4
:1030D0008171072B00D17BE00F2121400C0030349F
:1030E000092966D8C471082B00D171E0147925092B
:1030F000290030319F2C5FD80172092B68D00F2135
:1031000021400C003034092958D844720A2B5FD072
:1031100054792509290030319F2C52D881720B2B0C
:1031200056D00F2121400C00303409294BD8C472ED
:103130000C2B4DD094792509290030319F2C00D9D2
:10314000073101730D2B43D00F2121400C00303487
:10315000092901D937310C0044730E2B38D0D179AD
:103160000C09220030329F2900D9073282730F2BBD
:103170002ED00F220A4011003731092A01D83032EF
:103180001100C173102B23D010300023037030BD09
:1031900007345AE737310C0063E707316CE7373102
:1031A0000C0074E707317DE737310C0085E7073104
:1031B0008EE737310C0095E707319DE737310C007A
:1031C000A3E70731AAE737310C00C4720C2BB1D149
:1031D000C018DAE77823002010B588B004000D226B
:1031E00000216846FFF7B6FA0D22002104A8FFF778
:1031F000B1FA4B236A466846137004A90D2202F007
:10320000B3FA1521082220006944FFF7A9FA08B093
:1032100010BDC04610B501210520FDF79DFA10BD77
:1032200010B500220021024800F05CF910BDC04634
:10323000501F00208022024B5202DA647047C046C1
:1032400000201150F0B5C64600B5060000F024F984
:103250000C231B4DFF22AB6705201A49FDF7DEFA50
:1032600040239846184C402200212000FFF772FAB4
:1032700043460127238321210023144A6770A2605B
:10328000136063545F31618441462187053963547B
:103290000F4A10496360E260A1620B606362E26200
:1032A00002F0B2FA80239B052F64EB6490230A4A54
:1032B0003000EA50FFF7BEFF80BCB846F0BDC04604
:1032C0000000115011050020301F00208400105014
:1032D000000110508000105010D001000B785B06E8
:1032E00002D14B78052B00D070478A78014B1A60C9
:1032F000FAE7C04600001150F0B5C64600B5CC78DC
:1033000088780A794B797F21A40701401B02C509FF
:1033100013434F00A20F1400324E7A195201B21813
:10332000907001206840507000205B055B0DD070EC
:103330001383D4768046CA00012D33D02A488446B0
:10334000880162448446B44460468260404610600E
:10335000002933D0254AC900904662464144516055
:103360003F223F339343022C00D15B0020487A195F
:1033700001685201B218D1601E4ACB180360514057
:103380005A40802388465B019A4228D84346A406C7
:103390001C4380237F197F01F61972681B062343A3
:1033A000136011E014488446880162448446B444A2
:1033B0006046826240461060002909D100236D01F9
:1033C00075196B600D4BEB60012080BCB846F0BDF9
:1033D000084AC9009046624641445162C0E7FEF780
:1033E00055FED3E7301F0020840010500400105019
:1033F00040230020000010508000105000011050A9
:1034000010B502F001FA10BD10B57F200C0020406D
:103410004000E409110000191A00034B4001C018D4
:1034200000F060F8012010BD301F00207F2318003D
:1034300000B5084083B00B4204D14B424B41084ACF
:10344000013393668022C9094000064B40184001B1
:103450000021C018120102F0CFF903B000BDC04630
:1034600000201150301F00207F22130010B50B40A8
:103470000A4200D110BDC9095B005B1804485B011A
:10348000C018002300220349C37002F0B5F9F1E728
:10349000301F0020FFF7FFFF80220D4B520410B5B4
:1034A0001A600C4B0C491A6010008B689843FBD1D2
:1034B0009C2200210948FFF74DF98022002152018A
:1034C0000748FFF747F90923044A536710BDC04670
:1034D00000E0004000F0004000C00040000011503B
:1034E00000001050002310B5C3820133828283761E
:1034F0000161040002F060F9002804D080219023CB
:10350000074A8902D150200002F026F9002802D093
:103510000123237710BD200002F066F9FAE7C046C8
:1035200000201150024B5878431E9841C0B270479A
:10353000781C0020024B18784007C00F7047C04627
:10354000781C0020034B1878FF38431E9841C0B206
:103550007047C0462C0F0020F8B5CE46474680B5D0
:10356000284E05003378FF2B04D00120C0BCB9469B
:10357000B046F8BD532200212348FFF7EBF8234C57
:103580002000FDF7ADFB224B1C60224C2000143CB8
:10359000FDF7C2FB200001F0BFFB1F4B1F4F1C605B
:1035A0001F4B9846002F04D01800FFF7FDFA1D4B63
:1035B000186043461C4A002491461B78002F11D006
:1035C0004A46A34212D89047434601341B78E4B2DE
:1035D000A342F3D228003570FFF734FE2800FFF72E
:1035E00019FEC2E7002C0BD00020BFE70D4A630094
:1035F00012681B19DB00D318002BF5D01A68E2E71C
:10360000094AE0E72C0F0020781C0020301C002025
:10361000CC1C0020240F0020D01C0020A92B00105F
:10362000B123002050190020AD430010F0B5DE4654
:1036300057464E464546E0B591B001F093F8002854
:1036400000D1FCE0C34BC44E9946C44B0DAC029371
:10365000C34B9B464B46019335686A69EFF3108173
:1036600072B61368002BFCD0BFF35F8FA9612800EE
:10367000210001F081F96A69AB69BFF35F8F002116
:10368000116083F31088002800D1D8E06378082BFC
:10369000E2D8019A9B00D3589F466368002BDBD089
:1036A000A0689847D8E77F202179AC4D08404300B7
:1036B000CA09EB189B181D0001273035EA78BA4378
:1036C000EA70EA780337BA43EA70002800D1F2E0E2
:1036D000A44FDB7C002F06D0A34A1278934200D27D
:1036E000F1E09B1ADBB2002B00D0A8E09F4DA3684D
:1036F00062792078A847AFE70122984D01202B7806
:10370000042113432B703323EA5C8243EA54EA5CBE
:103710008A43EA540133EA5C8243EA54EA5C0020BB
:103720008A43EA5423789A4600F0F6FC6022237913
:103730001A40602A00D1B5E0402A00D1AFE0DB0694
:10374000DB0E012B00D1D3E0022B00D120E1002BB6
:1037500000D0A7E0202A00D153E1002A00D0A1E048
:103760006379092B00D99DE0814A9B00D3589F467D
:10377000029B1B78DB0700D46EE77E4B002B00D149
:103780006AE700E000BF67E7744D2B78DB0700D4E1
:1037900062E7794B002B00D15EE728780007C00F65
:1037A00000E000BF58E7002523786E4F9A466E4B25
:1037B00098461B78002F49D05A46AB4263D85046F2
:1037C0009047434601351B78EDB2AB42F2D2634DD0
:1037D000532200212800FEF7BDFF1022FF21E81C24
:1037E000FEF7B8FF28002022FF211330FEF7B2FFBA
:1037F0002EE0002523785B4F9A465B4B98461B785A
:10380000002F2ED05A469D4233D350469047434610
:1038100001351B78EDB2AB42F2D2504D532200215C
:103820002800FEF797FF1022FF21E81CFEF792FF09
:1038300028002022FF211330FEF78CFF14E011B086
:10384000F0BCBB46B246A946A046F0BD002D38D01C
:1038500000F058FC494B002B00D1FDE600E000BF12
:10386000FAE6002D19D03D4D00F04CFC2379AB70E9
:10387000F2E6434A6B0012685B19DB00D318002B99
:10388000F1D05A68C1E73E4A6B0012685B19DB0051
:10389000D318002BDCD05A6891E7314AB5E7394894
:1038A00000281AD120780021FFF7C0FD8021207860
:1038B000FFF7BCFDD0E6A3686279207800F040FCF9
:1038C000CAE6274A7BE72E4A58001268C318DB0075
:1038D000D318002BB3D01D6909E700F01DFC0121AE
:1038E00050460EAA00E000BF002800D0B4E6D9E799
:1038F000237A0F2BD6D81B4FEB18DB78002F06D07E
:10390000194A1278934200D29CE09B1ADBB2002B3A
:10391000C8D11D481D4D00F0FFFB01215046EB684A
:103920000EAA9847002800D096E660221500237959
:103930001D401A42B6D163790A3B012BB2D800F080
:10394000EBFB63790A2B00D17DE150460EA900F014
:103950006FFB81E6745A0010D01C0020781C0020F8
:1039600029440010A92B0010B12300201D4600108F
:10397000985A001000000000000000000000000045
:10398000501900200000000039450010005B0010B5
:103990007023217A0B4285D1C80984460F330B402E
:1039A0005B00E8186044C07CB14F8046002F07D010
:1039B000B0480078804550D34746381AC0B2804698
:1039C000404600283AD1002A00D0F5E0AA4A9046A5
:1039D000677902203A008243012A00D1F0E0002FEB
:1039E00000D05FE7EB1863443033DB780CAA9B0709
:1039F000DB0F02321380504602230EA900F02EFB8B
:103A00002AE6237A0F2B00D94CE7994FEB18DB7885
:103A1000002F06D0974A1278934200D2F3E09B1A07
:103A2000DBB2002B00D03DE79448934D00F074FBCF
:103A300001215046EB680EAA984755E79046002AA8
:103A4000C6D02FE78E4A59001568CB18DB00ED1859
:103A5000002D00D126E7E8685DE7474688487F00EB
:103A6000006847448046FF00B844002AB0D043466F
:103A7000002B00D116E7D86800F04EFB4346012129
:103A80005046DB680EAA98472EE7A37903931A00E5
:103A90006B789A4207D06B78002B00D058E1039BDB
:103AA000002B00D0F8E0039B50460EA96B7000F08D
:103AB000BFFAD1E56B780CAA02321370504601238D
:103AC0000EA900F0CBFAC7E5E3881A0AD8B20F2A8C
:103AD00000D9E7E66B499300CB589F460EA800F04B
:103AE00021FB5046A179FFF79BFB02222B78134361
:103AF0002B70B1E5E388012B00D0D3E608222B78A8
:103B0000504693430EA92B7000F092FAA4E50220D0
:103B100029780CAB9A1C8B068908DB0F01400B43FC
:103B200068E7E388012B00D0BCE608222B785046DA
:103B300013430EA92B7000F07BFA8DE5524B002B3E
:103B400000D1AFE600E000BF021E00D1AAE6D378A4
:103B500091781B020B4350460EA900F07FFAC3E692
:103B60004A4B002B00D19DE600E000BF021E00D1B1
:103B700098E6504613780EA900F070FAB4E6218951
:103B8000FFF712FA021EF4D18CE6022A00D12DE1D1
:103B90003F4B002B00D185E600E000BF0200002A69
:103BA00000D17FE6D3E7FFF7F7F9122302000EA951
:103BB000504600F053FA97E62F4B304898465BE7A3
:103BC000E288002A09D1334A1078012F26D0EF1855
:103BD00067443037FB789B073ED54346002B00D126
:103BE0003AE5D86800F098FA43460121DB680EAA4E
:103BF00050469847002000F08FFA3423EB5CDB0737
:103C000000D529E5A1E61E4A59001568CB18DB004E
:103C1000ED18002D00D145E6E86807E7302291460F
:103C2000EB18634499444B46DB789B07D5D5FFF7E7
:103C30001BFC4B460222DB7893434A46D370D37871
:103C4000BB43D370C9E70CAB9A1C504601230EA9A5
:103C5000157000F003FAFFE4FFF7E8FB0222FB789F
:103C600013430122FB70FB781343FB70B5E7C0469A
:103C7000A92B0010B1230020005B00103945001073
:103C800050190020C05A0010000000000000000081
:103C9000000000002C0F0020581EC0B2FFF780F972
:103CA000002800D1FEE543780793022B00D0F9E508
:103CB0000121C279B146931152110B400A40120101
:103CC0005B0113432A782F318A4313432B70092356
:103CD000984680444746A846C37882781B0213431F
:103CE000C31804935C4B0993049BBB4200D881E04A
:103CF0007B7801220B2B02D13B78FA78FF187B7876
:103D0000042B23D10025049B0B92DB1B9BB2059354
:103D1000524B19780693524B0A93524B08930A9BC5
:103D2000002B52D0099B089E8D4245D33900504646
:103D3000059A98478446082802D9059A824262D299
:103D4000069B01351978EDB2A942E8D24E46A9E5A5
:103D50005046FFF755FB00229146434AAB78059247
:103D60002A004D46914604933C4B3D4F98461B78A4
:103D7000002F1BD0059A9D422CD3504690474346B6
:103D800001351B78EDB2AB42F2D24D4653220021F1
:103D90002800FEF7DFFC1022FF213448FEF7DAFC92
:103DA0002022FF213248FEF7D5FC02E0002D1BD077
:103DB0004D46049BAB7072E618232E4A6B4316687F
:103DC000F618002EC2D0B368B0E7002DBED1224B4A
:103DD000244EABE7274A6B0012685B19DB00D3184F
:103DE000002BE5D05A68C8E71F4AC6E7FFF7D8F8A6
:103DF0000200D4E6204B45464E46002B00D152E649
:103E000000E000BF4FE60B9A012A1FD00021464672
:103E100009E0BB78CB18DBB2F318D878FF2895D12E
:103E20000131DD70C9B29142F3D1B04666462B0034
:103E3000390032000E4800F01BFDB446069B674473
:103E40001B78AB4200D34FE74E462BE5024BB168DF
:103E50009942DBD1079AD9E755440010B1230020DD
:103E6000A92B0010005B0010294400107B1C0020CF
:103E70008B1C00205019002000000000F8B55746A8
:103E80004E46DE4645460C00E0B516001F00002AEF
:103E90003CD0702398461E4B00259B461D4B9A46EE
:103EA0001AE05B461B78200099465346997800F04B
:103EB000A1FC00281CD021004846FFF71DFA00286D
:103EC00016D0A378DA09012A19D00A9A013513709D
:103ED0002378E418B54219DA6378052B08D1E37822
:103EE0009B079B0FBB4203D14246A3781A42D8D00E
:103EF0000020F0BCBB46B246A946A046F8BD0B9ACE
:103F0000013513702378E418B542E5DB0120F0E7B2
:103F10002C0F0020781C0020802310B50F4A84B09D
:103F20001B0114680193039101AB58606169EFF3C1
:103F3000108272B608680028FCD0BFF35F8F1900AA
:103F4000A261200000F0DAFD6269A369BFF35F8F10
:103F50000021116083F3108804B010BDD01C002034
:103F6000702270B58B780C001A4201D0002070BD11
:103F7000064B20001D78064B997800F03BFC00288A
:103F8000F4D021002800FFF7B7F9F0E72C0F00204C
:103F9000781C00200B007F2010B51840DB0933335C
:103FA0004000044AC018044B1168C01800F0DEFB42
:103FB00010BDC046CC1C0020781C00200B007F20C8
:103FC00010B51840DB0933334000044AC018044BD5
:103FD0001168C01800F0F2FB10BDC046CC1C0020D8
:103FE000781C002070B57F240F480C406400041931
:103FF000CD0964193034E078C00701D5002070BDC8
:104000000126E578094835430078E570FFF7FCF9AB
:104010000028F4D10122E3789343E370E37803327C
:104020009343E370EAE7C046781C00202C0F002081
:1040300070B5094C0600082220000D00FEF790FB29
:1040400000238021E360A3602B7830009943002295
:104050000023FFF7C7FF70BD1C1C0020F8B5CE463B
:1040600047469046254E80B58146082230000D0017
:104070001F00FEF775FB4346B3600023F381EC7924
:10408000AB7924021C43231CBC4200D93B1C9FB2C9
:10409000B381002C0DD0002F17D04246002A2BD020
:1040A000402F1BD89FB233787F2B1CD80021144A95
:1040B0000FE080212B780022994348460023FFF728
:1040C00091FFC0BCB946B046F8BD7F2300223178CD
:1040D00099433B004846FFF785FFF2E740239FB234
:1040E00033787F2BE2D9064C3A0041462000FEF798
:1040F00037FB80212200ECE70020E2E71C1C0020B7
:10410000381C002010B5142200210248FEF722FBC3
:1041100010BDC0461C1C0020014B18617047C046F2
:104120001C1C002010B5054C010008222000FEF7E1
:1041300017FB0023A360E36010BDC0461C1C0020D9
:1041400070B5394C1D0023780600DA09C9098A4286
:1041500013D00020002D00D070BD344B002B03D0B5
:1041600021003000FFF7BAF82369002B03D02200AA
:104170000321300098470120EEE77F2B06D8A06886
:10418000002834D02A002A49FEF7EAFAE289A16819
:104190005219E38892B24919E281A160934214D086
:1041A0003F2D12D9A389981A051C80B240282AD81D
:1041B0002078ADB27F2828D800219A4232D01C4AFC
:1041C0002B003000FFF70EFFC6E72369002B05D058
:1041D000220002213000984700280AD0802123784D
:1041E0000022994330000023FFF7FCFEB4E70020D3
:1041F000B2E700213000FFF719F930008021FFF706
:1042000015F90120A8E74025D2E79A4207D0084CCB
:104210002A002000FEF7A4FA80212200D0E78021A6
:104220000022CDE70022CBE71C1C0020DD3200106D
:10423000381C002010B50400FFF774F9002801D1E4
:10424000002010BDFFF776F90028F9D1B2229200C4
:104250006243034B01309B181B791840F1E7C046BD
:1042600054190020B2239B00434310B5024818188C
:1042700000F04EFB10BDC04664190020F0B5B22519
:10428000AD0045432C00C646164F1034E41900B566
:10429000200092B200F0BEFB0600200000F056FBAA
:1042A0003F2803D8300080BCB846F0BD7B19002001
:1042B000D9789846FFF76EFE0028F3D0200000F072
:1042C00045FB4346D9783F2808D992239B00EA183A
:1042D000D21940230020FFF785FEE3E70020FFF717
:1042E0006DFEDFE754190020F8B50400FFF71AF956
:1042F000002801D10020F8BDFFF71CF90028F9D1F2
:10430000B2239B005C432600144D243676193000FE
:1043100000F0FEFA0028EDD02F190020B978FFF741
:1043200039FE0028E6D0A2239B009C466444651910
:1043300029004022300000F06DFBB978041E08D03F
:1043400003002A000020FFF74DFE0028D2D02000F5
:10435000D1E70020FFF732FECCE7C0465419002019
:1043600070B5B224A4004443094B0500E4182000B2
:1043700092B200F015FC0600200000F0C9FA3F28B8
:1043800001D8300070BD2800FFF7AEFFF9E7C04646
:1043900078190020B2239B00434310B50248181837
:1043A00000F0D4FA10BDC04678190020B22270B5D2
:1043B0001B4C82B0002120009200FEF7CBF9FF23B6
:1043C0006371184B0025E38001260823210020009B
:1043D00080222681237338310095073B520010302C
:1043E00000F060FA2100200080223931FF315200B4
:1043F00000960123243000F055FA8E239B00E61826
:104400003000FCF76DFC90239B002662E61830001C
:10441000E561FCF765FC2663656302B070BDC046CC
:104420005419002000C2FFFF10B5094C05220021DD
:104430002000FEF78FF920002434103000F06CFCCF
:10444000200000F069FC0121200000F085FC10BD77
:1044500054190020F0B54B79060083B0022B35D1FA
:104460008B79022B32D1314FBB78002B2ED18B7838
:1044700009253B700C780C196378242B07D029E0B0
:104480002378E4185D196378ADB2242B22D1AA42B7
:10449000F6D2274C200000F059FA3F2817D9260001
:1044A000103E0020F178FFF775FD00280FD02000A6
:1044B00000F04CFAF1783F2833D98E239B00E218A4
:1044C000F93BFF3B0020FFF78DFD00E000252800B1
:1044D00003B0F0BD1A00052B15D0042AD9D1637999
:1044E0000A2BD6D1134B2778019301330093300068
:1044F0000223E119023AFFF7C1FC0028E6D00E358D
:10450000ED19ADB2C5E721003000FFF729FD002805
:10451000DCD0A3787B7023785D19E4186278ADB2A3
:10452000DBE70020FFF74AFDD1E7C0465419002021
:104530006419002056190020F8B560231400127881
:10454000050013400020202B12D12F4A63792779D0
:1045500016781B023B439E420AD16378222B1AD065
:1045600007D8202B3CD0212B02D1012930D00120AB
:10457000F8BD232BFCD101293FD00329F7D1234BD0
:10458000002BF4D0E178A37809020020194300E061
:1045900000BF0120ECE701292FD00329E7D1012535
:1045A0002E00A378E478023924021C4314712640BB
:1045B00024321000714000F0CFFB154B002BD6D0F9
:1045C0006208002031002A4000E000BF0120CFE750
:1045D0000723210028000F4AFFF740FD0120C7E70D
:1045E0000129F5D00329C2D10B4B002BBFD00020ED
:1045F000911DFEF7DFFA0120BAE721002800FFF73E
:1046000017FD0120B4E7C046541900200000000047
:10461000000000005A190020B52B0010F8B54546DF
:104620005746DE464E46E0B5464D8046EA780C00D9
:104630001F008A4247D0AB788B421BD00020F0BCD1
:10464000BB46B246A946A046F8BD3F4B002B04D05E
:10465000484600F073F900286CD0484600F076F91F
:104660003F2807D94E46103E0020F178FFF792FC14
:10467000002851D1AB78A34201D00120DFE7334BB2
:10468000002B02D0002000E000BF0020FFF72CFE2E
:104690000028F2D12E4C200000F03AF90028ECD18D
:1046A000002FEAD0BF06E8D1243C4046A178FFF7AE
:1046B00071FC0028E1D0002300224046A178FFF7DA
:1046C00091FC0120BBE79AB292239B00EE181023C5
:1046D0009B46AB443100584600F062FA1D4BD94668
:1046E000002BB2D06B79FF2BAFD0002FADD0F219D9
:1046F000924603E00136B245A7D06B7932789A42F0
:10470000F8D1484600F01AF90028F3D14B46103B87
:10471000597900E000BFEDE7484600F017F9F1785D
:104720003F280AD98E22920040234A440020FFF7F6
:1047300059FC9FE7FEF7ACFB8FE70020FFF73EFC3C
:1047400098E7C04654190020912E00100000000088
:10475000781900200000000010B50020FEF7FCFED4
:1047600010BDC04610B5FEF7EDFE10BD037870B564
:10477000DB0704000E00DD0F002B17D103785B0769
:1047800001D5280070BD01213000494201F01CF81C
:104790002378DB07DD0F002B0AD123785B0708D4D1
:1047A0000422237801251343237002E00025E8E763
:1047B0000025300000F0E0FFE3E7C04670B50C00D4
:1047C000012106004942200000F0FEFF33785B071C
:1047D000DD0F002B04DB200000F0CEFF280070BDB1
:1047E0003378DB0704D40422337893433370F2E741
:1047F0000025F0E7437902791B021343C2785B0579
:1048000092075B0D920F022A1DD0032A0CD00020C4
:10481000012A08D102394A425141124A9446614460
:1048200099424041C0B2704702394A1E91410E4A36
:10483000494211408022D2009446002061449942AE
:104840004041C0B2EFE7022905D0002040229A4241
:104850004041C0B2E7E7054A981843425841C0B208
:10486000E1E7C046FF03000040FCFFFF00FEFFFF42
:104870008A1870B5914207D27F264C78052C04D057
:104880000C7809198A42F8D870BD34008D782C4014
:1048900064000419ED0963550C7809198A42ECD8B3
:1048A000F2E7C046F0B5C64600B504006846057E8E
:1048B0008020884617001E000002824226D8E06849
:1048C000002803D00121494200F07EFF2069002822
:1048D00003D00121494200F077FF4346236073046F
:1048E0005B0CED031D430023E0686381A780E58036
:1048F0002381002801D000F03FFF2069002801D06B
:1049000000F03AFF012080BCB846F0BD0020FAE775
:1049100010B5048941898288A3B288B28C4207D33A
:104920001B1A9BB2101C9A4200D9181C80B210BDF1
:104930005100091A5B189BB2F4E7C046038940890D
:10494000181A43425841C0B27047C04610B5048996
:1049500041898288A3B288B28C4207D31B1A9BB2CA
:1049600000209A4201D9D21A90B210BD5100091A02
:104970005B189BB2F4E7C04670B5040000690E00F6
:10498000002803D00121494200F01EFF25896089DB
:10499000A288A9B283B2854232D3CD1AADB2002D1E
:1049A00028D0AA4208D291422FD3891A8BB26381B0
:1049B0009A4203D89B1A9BB29A42FBD9E28821689B
:1049C0005204520C53433000C918FDF7C9FE6389E5
:1049D0000125591C89B2A2888B420DD900215200B1
:1049E000891A89B220696181002801D000F0C4FED3
:1049F000280070BD618989B252009142F2DBEFE775
:104A00005500ED1A4D19ADB2C9E789188BB2638113
:104A1000CEE7C046F0B546464F46D646C0B506007E
:104A2000006989469046002803D00121494200F0E0
:104A3000CBFE31897289B5888BB294B2914254D33E
:104A40001F1BBFB2002F4AD0BD4205D2AB4251D28C
:104A50005B199CB22F0074814346B8453DD89FB284
:104A6000A54203D8641BA4B2A542FBD9F2883168E1
:104A70005204520C904662432B1B9BB2891842464B
:104A80009F4225D953439BB21A0048469A46FDF7E8
:104A900067FE434648467D1B64195C4331685044B9
:104AA000A2B2FDF75DFE7189B588CB199BB26A0091
:104AB000994216D99B1A9BB230697381002801D0A4
:104AC00000F05AFE3800E0BCBA46B146A846F0BD38
:104AD00048467A43FDF744FEE5E73B1CBFE7738990
:104AE0009BB26A009342E7DBE4E76F003F1BDF19EC
:104AF000BFB2A7E75B1B9CB2ACE7C046F8B50400A9
:104B0000C0680E00002803D00121494200F05CFE7D
:104B1000258920896189A288ADB283B28FB288428B
:104B200029D3DB1B9BB29A4209D8E779FF0906D14A
:104B3000E068002801D000F01FFE3800F8BD2B000F
:104B400095421DD39B1A9BB29342FBD2E288206808
:104B50005204520C53433100C018FDF701FE6B1C88
:104B60009BB2A2889D4217D9002352009B1A9BB288
:104B700001272381DCE75100C91B5B189BB2D2E7F8
:104B8000E28820685204520C53433100C018FDF7EC
:104B9000E7FD0135A288ABB252009342E8DBE5E7BE
:104BA000F0B54E465746DE464546E0B58946060016
:104BB000170083B0002A67D0C068002803D0012105
:104BC000494200F001FE3389F2799BB2984673891D
:104BD000B5889BB2D20940D198455ED26A00D31AFB
:104BE00043449BB2AB425DD2EB1A1A1C9BB2BB4250
:104BF00000D93A1CF38897B25B045B0C9A46434693
:104C0000DB199BB29B467B1B9BB201934446A84594
:104C100003D3641BA4B2AC42FBD253466343306857
:104C20002D1BADB2C018BD424BD3524649467A4304
:104C3000FDF796FDB3885B00C34501D39B4503DBBD
:104C40005A46D31A9BB29B465B463D003381F068BF
:104C500000281AD000F090FD17E0F2885204520CA0
:104C60009246AF4220D298454DD34246D21A92B2D4
:104C70006900781B80B2D21901908A4233DA434628
:104C8000FB189BB29B46C1E70025280003B0F0BC8F
:104C9000BB46B246A946A046F0BD4246D31A9BB2D7
:104CA000AB42A1D30025D2E7002DD0D07F1B5743C4
:104CB00098465A19002392B2B94493462F000193A3
:104CC000A4E753465D43ADB22A004946FDF748FDCF
:104CD000019B29001A1953465A43306892B249443D
:104CE000FDF73EFDA6E75A1992B29346D21B92B247
:104CF000904693420CD94346591A8BB29846FB18FA
:104D00009BB29B4682E76900CA1A424492B2B0E75E
:104D1000914200DD7AE7EEE710B50400C068002894
:104D200003D00121494200F04FFD2069002803D043
:104D30000121494200F048FD0023E068638123819E
:104D4000002801D000F018FD2069002801D000F0F3
:104D500013FD012010BDC04670B50400C0680D00F1
:104D6000002803D00121494200F02EFD20690028CF
:104D700003D00121494200F027FD7F21E379ED01B5
:104D80001940E0682943E171002801D000F0F4FCEB
:104D90002069002801D000F0EFFC012070BDC04662
:104DA00010B5024800F0DCFA10BDC046E017002044
:104DB00010B5024800F0D6FA10BDC046E01700203A
:104DC000F0B5C64600B50C228B5E07000C001A0732
:104DD0004DD48021626809011943A181002A69DD4F
:104DE000A56A002D3FD000223E683A60DB0466D4FD
:104DF000002201233800E169A8470200431C6BD060
:104E00000C23E15EA56A490706D56368D21A236BB5
:104E1000002B01D0E36BD21A00233800E169A847C8
:104E20000C23E25E431C4CD139681D295ED8314BFE
:104E3000CB40DB075AD5304B1340A381002363607E
:104E400023692360D20401D5002943D0216B3E6041
:104E5000002908D023004033994202D0380000F0E6
:104E600019FB00232363002080BCB846F0BD0E6907
:104E7000002EF8D00D680022AD1B0E609B0700D1FC
:104E80004A69A260002D04DCEDE736182D1A002DCA
:104E9000E9DD636A3200984638002B00E169C047BB
:104EA0000028F2DC4022A38913431BB20120A38116
:104EB0004042D9E7E26B002A00DD91E7D3E7226D9B
:104EC000A1E70D4B1340A381002363602369236096
:104ED000D204BBD52065B9E73B68002B00D18FE732
:104EE0001D2B01D0162BDDD13E60BCE740231343C0
:104EF000DCE7C04601004020FFF7FFFF70B505006A
:104F00000C00002802D0436B002B27D00C22A35E9C
:104F1000002B11D0626ED20701D49B050ED528005C
:104F20002100FFF74DFF636E0500DB0702D4A38964
:104F30009B050FD5280070BD0025FBE7A06D00F094
:104F40000FFA28002100FFF73BFF636E0500DB0727
:104F5000F0D4ECE7A06D00F005FAEBE700F0F8F80C
:104F6000D4E7C04670B5041E2AD0194B1D68002D29
:104F700002D06B6B002B17D00C22A35E002B11D03C
:104F8000626ED20701D49B0512D528002100FFF7DD
:104F900017FF636E0500DB0702D4A3899B050BD5C1
:104FA000280070BD0025FBE7280000F0D1F8E3E7FA
:104FB000A06D00F0D5F9E8E7A06D00F0D3F9EFE7B8
:104FC000044A0549054800F0EFF80500E8E7C04647
:104FD0004C13002040130020FD4E00105013002001
:104FE00010B5034A0349044800F0DEF810BDC0467E
:104FF00040130020855600105013002041680B4BD1
:1050000010B50400994201D000F03CFBA168084BA8
:10501000994202D0200000F035FBE168054B99422F
:1050200002D0200000F02EFB10BDC0461418002056
:105030007C180020E4180020F8B5CE4647463B4CCB
:105040003B4B3C4A2000002580B51A60042308220F
:1050500000215C3025606560A5606566256165613D
:10506000A561E360FDF776FB2000334B334F344EF0
:1050700099462362334B58309846A762E6626362D2
:10508000E46100F069F9CC23E5502F4B2000636701
:10509000802300210822C430E550A566E566256717
:1050A000A567E567FDF756FB220084236832E250CE
:1050B0004A460433E250424620000433E2500433AF
:1050C000E750C0300433E65000F046F9D02320000A
:1050D000E5500433E5500433E5501C4A5C33E55099
:1050E000583BE2500433E5502D300433E5500021A5
:1050F00004330822FF30E550FDF72CFB2200EC239F
:10510000D032E2504A460433E25020004246043393
:10511000E25029300433E750FF300433E65000F00A
:105120001BF9C0BCB946B046F8BDC04614180020F3
:105130004C190020E14F0010ED51001055520010A5
:1051400081520010155200100900010012000200E7
:1051500070B50400094D280000F002F9636B002BC4
:1051600005D1074B6363074B1B68002B03D0280056
:1051700000F0F8F870BDFFF75FFFF8E7E4170020D4
:10518000FD4F00104C19002010B5024800F0E8F85F
:1051900010BDC046E417002010B5024800F0E2F848
:1051A00010BDC046E4170020F8B54746CE468846F5
:1051B00080B58146170000267D68BC68013D0DD48E
:1051C000A389012B07D90E22A35E013303D021004E
:1051D0004846C04706436834013DF1D23F68002F7E
:1051E000EAD13000C0BCB946B046F8BD70B50C007D
:1051F0000E25495F00F070F8002803DB236D1B18B3
:10520000236570BDA389024A1340A381F9E7C04614
:10521000FFEFFFFFF8B50C001F000C23C95E05006F
:105220001600CB050AD40A4B320019402800A18190
:105230000E23E15E3B0000F075F8F8BD0E23E15E41
:105240000022022300F034F80C23E15EEBE7C046B5
:10525000FFEFFFFF70B50C000E25495F00F028F846
:105260000C22A35E421C05D080225201134320650C
:10527000A38170BD014A1340FAE7C046FFEFFFFF6C
:1052800010B50E23C95E00F001F810BD002370B503
:10529000064C050008002360FDF714FC431C00D0F9
:1052A00070BD2368002BFBD02B60F9E7201F002086
:1052B00070B50400080011001A000023054D2B6092
:1052C000FDF704FC431C00D070BD2B68002BFBD005
:1052D0002360F9E7201F002070B5040008001100CA
:1052E0001A000023054D2B60FDF74CFB431C00D03A
:1052F00070BD2B68002BFBD02360F9E7201F002036
:10530000002370B5064C050008002360FCF788FEFA
:10531000431C00D070BD2368002BFBD02B60F9E745
:10532000201F002070B50400080011001A0000239F
:10533000054D2B60FDF770FB431C00D070BD2B6842
:10534000002BFBD02360F9E7201F0020014B1868D9
:105350007047C0464C1300207047C0467047C04697
:105360007047C0467047C046802310B55B010828CF
:1053700001D1180010BDFFF7E9FF16230360173BAA
:10538000F7E7C04610B583070AD00300032102E007
:1053900001330B4205D01A78002AF9D1181A10BD32
:1053A000030019680C4A0D4C8A188A4322420FD117
:1053B0005968094A04338A188A43224208D1596835
:1053C000054A04338A188A432242F1D000E00133AF
:1053D0001A78002AFBD1E1E7FFFEFEFE8080808084
:1053E000F0B5C646060000B508200D00FFF7BCFF6B
:1053F00004003000FFF7D4FC234B210098469B6843
:105400005F6803239F4338001138401B0019FCF7E5
:105410009DFE451E6543AC4208DC00213000FFF7CD
:105420006FFF43469B68DB19984206D03000FFF7B8
:10543000BFFC002080BCB846F0BD30006942FFF7D9
:105440005FFF01300ED0012243467F1B9B6817434C
:105450000E4A5F60136830005B1B1360FFF7A8FC07
:105460000120E7E700213000FFF74AFF43469A6832
:10547000831A0F2BDADD064C04492468001B0860F0
:1054800001210B435360D1E7380F0020E8170020BB
:10549000300F0020F0B5D6464F46464605000C00BA
:1054A000C0B5002948D0FFF77BFC2100012708394F
:1054B0004B6803209C46BB43CE187268824360460B
:1054C000384080466A4891468468B44200D17CE006
:1054D0007260B41864683C40A2464446002C30D147
:1054E0000C68A446091B8C686344A4460824A046A3
:1054F0008044C4455CD0CC68A04664464246E26025
:1055000094605246002A1FD01F434F6033608022B0
:105510009200934230D2DA085C090123A340446828
:1055200023434360D3001B189A68CB608A6099605C
:10553000D1602800FFF73CFCE0BCBA46B146A84663
:10554000F0BD5246002A0FD101224B44CF18BC4671
:10555000B468484F1A43BC425BD0F668E660B4605A
:105560004A6062461360D2E762463A434A6080224C
:10557000336092009342CED35C0A042C3FD89C093E
:10558000260039343836E40004192268083C032721
:10559000944203D14EE09268944203D05068B843DD
:1055A0009842F8D8D468CC608A60A160D160C0E726
:1055B0005246002A35D14B441A00B068F3681743AD
:1055C000C36098604F608A50B3E74B441A0043466B
:1055D000002B06D10B68C91A8C68D218CB68E3601F
:1055E0009C60012313434B60234B81601B689342F3
:1055F0009FD8224B28001968FFF7F2FE99E7142C78
:1056000013D9542C1DD81C0B26006F346E36E400C1
:10561000BAE7E160A1604A606246CC608C601360CA
:1056200087E71F434F60336083E726005C345B36B7
:10563000E400A9E70123B610B34046683343436052
:10564000B1E7AA225200944205D8DC0B2600783438
:105650007736E40098E70A4A944205D89C0C260065
:105660007D347C36E4008FE7FE247E26A4008BE7A1
:10567000380F0020400F0020340F002010180020A9
:105680005405000070B506000C1E3FD0002802D063
:10569000436B002B47D001250C22A35E626E2A4289
:1056A00032D19B0542D521003000FFF789FBE36A28
:1056B0000500002B04D03000E1699847002828DB62
:1056C000A3891B062AD4216B002908D0230040336C
:1056D000994202D03000FFF7DDFE00232363616CA6
:1056E000002904D03000FFF7D5FE00236364FFF7E4
:1056F0004BFD0023A381636EDB0725D5A06DFFF76B
:105700002DFEFFF749FD02E0002BCCD1002528003B
:1057100070BD0125A3896D421B06D4D530002169D7
:10572000FFF7B8FECFE7FFF713FDB4E7A06DFFF773
:1057300017FE0C22A35E002BB5D1636E2B42E5D180
:10574000A06DFFF70FFEE1E7A06DFFF70BFED5E7B9
:10575000F8B5C0460000000001B40248844601BC10
:10576000604700BF4D0A002001B40248844601BCD6
:10577000604700BFC102002001B40248844601BC5A
:10578000604700BF2502002001B40248844601BCE6
:10579000604700BFE50D002001B40248844601BC0B
:1057A000604700BFE50D002001B40248844601BCFB
:1057B000604700BFC100002001B40248844601BC1C
:1057C000604700BF250A002001B40248844601BC9E
:1057D000604700BF9901002001B40248844601BC23
:1057E000604700BF0101002001B40248844601BCAB
:1057F000604700BFC10B002001B40248844601BCD1
:10580000604700BF690B002001B40248844601BC18
:08581000604700BFF103002016
:10581800DC040010BA04001080040010F00300102B
:105828004C0400104E6F207370696E6C6F636B735D
:105838002061726520617661696C61626C65000047
:105848004E6F2075736572204952517320617265DD
:1058580020617661696C61626C6500004861726400
:105868007761726520616C61726D20256420616CBE
:10587800726561647920636C61696D65640000001C
:105888000A2A2A2A2050414E4943202A2A2A0A0055
:105898000A000000486172642061737365727400C5
:1058A80052656C6561736500626F6F74325F773241
:1058B8003571303830000000312E352E31000000AF
:1058C8007069636F000000007370616365696E76CC
:1058D80061646572735F636F6E74726F6C6C65720E
:1058E800000000004A756E20313620323032360012
:1058F80055534220737464696E202F207374646F4B
:105908007574000052617370626572727920506913
:10591800000000005069636F00000000426F617270
:10592800642043444300000052657365740000001E
:10593800556E68616E646C656420495251203078F8
:1059480025780A0065702025642025732077617307
:1059580020616C726561647920617661696C61624D
:105968006C65000043616E277420636F6E74696E06
:1059780075652078666572206F6E20696E61637444
:105988006976652065702025642025730000000075
:105998006F757400696E0000FFFFFFFFFFFFFF7F58
:1059A80006005250D3F07542A85800100600525015
:1059B800E182887FB058001006005250BBFF3CB609
:1059C800C85800100D0A00000D2B0010112B0010F4
:1059D8001D2B0010492B0010452B00100000000063
:1059E8000600525053B4F4A1F8580010000000000B
:1059F8000C5900101C590010A02300202459001035
:105A08003059001009025400030100807D080B0082
:105A18000202020000090400000102020004052439
:105A280000200105240100010424020205240600C7
:105A3800010705810308001009040100020A00009B
:105A48000007050202400000070582024000000925
:105A580004020000FF00010512010002EF020140EC
:105A68008A2E0A00000101020301000058360010C6
:105A7800F2370010A637001058360010883700108B
:105A880070370010F8360010A63600109A3600104D
:105A98000E3B0010F43A0010A4380010223B00100E
:105AA800A4380010DC3A0010C83A0010A4380010DE
:105AB800B43A00108A3A0010A4380010A63B00102F
:105AC8008A3B00107E3B0010A4380010A438001058
